{
  "_format": "hh-sol-artifact-1",
  "contractName": "BooztoryWorld",
  "sourceName": "contracts/world/BooztoryWorld.sol",
  "abi": [
    {
      "inputs": [
        {
          "internalType": "address",
          "name": "_paymentToken",
          "type": "address"
        },
        {
          "internalType": "address",
          "name": "_wldToken",
          "type": "address"
        },
        {
          "internalType": "address",
          "name": "_wldOracle",
          "type": "address"
        },
        {
          "internalType": "address",
          "name": "_ethOracle",
          "type": "address"
        }
      ],
      "stateMutability": "nonpayable",
      "type": "constructor"
    },
    {
      "inputs": [],
      "name": "DuplicateNullifier",
      "type": "error"
    },
    {
      "inputs": [
        {
          "internalType": "address",
          "name": "sender",
          "type": "address"
        },
        {
          "internalType": "uint256",
          "name": "tokenId",
          "type": "uint256"
        },
        {
          "internalType": "address",
          "name": "owner",
          "type": "address"
        }
      ],
      "name": "ERC721IncorrectOwner",
      "type": "error"
    },
    {
      "inputs": [
        {
          "internalType": "address",
          "name": "operator",
          "type": "address"
        },
        {
          "internalType": "uint256",
          "name": "tokenId",
          "type": "uint256"
        }
      ],
      "name": "ERC721InsufficientApproval",
      "type": "error"
    },
    {
      "inputs": [
        {
          "internalType": "address",
          "name": "approver",
          "type": "address"
        }
      ],
      "name": "ERC721InvalidApprover",
      "type": "error"
    },
    {
      "inputs": [
        {
          "internalType": "address",
          "name": "operator",
          "type": "address"
        }
      ],
      "name": "ERC721InvalidOperator",
      "type": "error"
    },
    {
      "inputs": [
        {
          "internalType": "address",
          "name": "owner",
          "type": "address"
        }
      ],
      "name": "ERC721InvalidOwner",
      "type": "error"
    },
    {
      "inputs": [
        {
          "internalType": "address",
          "name": "receiver",
          "type": "address"
        }
      ],
      "name": "ERC721InvalidReceiver",
      "type": "error"
    },
    {
      "inputs": [
        {
          "internalType": "address",
          "name": "sender",
          "type": "address"
        }
      ],
      "name": "ERC721InvalidSender",
      "type": "error"
    },
    {
      "inputs": [
        {
          "internalType": "uint256",
          "name": "tokenId",
          "type": "uint256"
        }
      ],
      "name": "ERC721NonexistentToken",
      "type": "error"
    },
    {
      "inputs": [],
      "name": "EnforcedPause",
      "type": "error"
    },
    {
      "inputs": [],
      "name": "ExpectedPause",
      "type": "error"
    },
    {
      "inputs": [],
      "name": "NotVerifiedHuman",
      "type": "error"
    },
    {
      "inputs": [],
      "name": "OracleNotSet",
      "type": "error"
    },
    {
      "inputs": [],
      "name": "OraclePriceInvalid",
      "type": "error"
    },
    {
      "inputs": [
        {
          "internalType": "address",
          "name": "owner",
          "type": "address"
        }
      ],
      "name": "OwnableInvalidOwner",
      "type": "error"
    },
    {
      "inputs": [
        {
          "internalType": "address",
          "name": "account",
          "type": "address"
        }
      ],
      "name": "OwnableUnauthorizedAccount",
      "type": "error"
    },
    {
      "inputs": [],
      "name": "QueueFull",
      "type": "error"
    },
    {
      "inputs": [],
      "name": "ReentrancyGuardReentrantCall",
      "type": "error"
    },
    {
      "inputs": [
        {
          "internalType": "address",
          "name": "token",
          "type": "address"
        }
      ],
      "name": "SafeERC20FailedOperation",
      "type": "error"
    },
    {
      "inputs": [],
      "name": "WldNotSet",
      "type": "error"
    },
    {
      "inputs": [],
      "name": "WorldIdNotSet",
      "type": "error"
    },
    {
      "anonymous": false,
      "inputs": [
        {
          "indexed": true,
          "internalType": "address",
          "name": "owner",
          "type": "address"
        },
        {
          "indexed": true,
          "internalType": "address",
          "name": "approved",
          "type": "address"
        },
        {
          "indexed": true,
          "internalType": "uint256",
          "name": "tokenId",
          "type": "uint256"
        }
      ],
      "name": "Approval",
      "type": "event"
    },
    {
      "anonymous": false,
      "inputs": [
        {
          "indexed": true,
          "internalType": "address",
          "name": "owner",
          "type": "address"
        },
        {
          "indexed": true,
          "internalType": "address",
          "name": "operator",
          "type": "address"
        },
        {
          "indexed": false,
          "internalType": "bool",
          "name": "approved",
          "type": "bool"
        }
      ],
      "name": "ApprovalForAll",
      "type": "event"
    },
    {
      "anonymous": false,
      "inputs": [
        {
          "indexed": false,
          "internalType": "string",
          "name": "contentType",
          "type": "string"
        },
        {
          "indexed": false,
          "internalType": "string",
          "name": "imageUrl",
          "type": "string"
        }
      ],
      "name": "ContentTypeImageChanged",
      "type": "event"
    },
    {
      "anonymous": false,
      "inputs": [
        {
          "indexed": false,
          "internalType": "uint256",
          "name": "newAmount",
          "type": "uint256"
        }
      ],
      "name": "DiscountAmountChanged",
      "type": "event"
    },
    {
      "anonymous": false,
      "inputs": [
        {
          "indexed": false,
          "internalType": "uint256",
          "name": "newCost",
          "type": "uint256"
        }
      ],
      "name": "DiscountBurnCostChanged",
      "type": "event"
    },
    {
      "anonymous": false,
      "inputs": [
        {
          "indexed": true,
          "internalType": "uint256",
          "name": "tokenId",
          "type": "uint256"
        },
        {
          "indexed": true,
          "internalType": "address",
          "name": "creator",
          "type": "address"
        },
        {
          "indexed": false,
          "internalType": "uint256",
          "name": "tokensBurned",
          "type": "uint256"
        },
        {
          "indexed": false,
          "internalType": "uint256",
          "name": "discountApplied",
          "type": "uint256"
        }
      ],
      "name": "DiscountSlotMinted",
      "type": "event"
    },
    {
      "anonymous": false,
      "inputs": [
        {
          "indexed": false,
          "internalType": "uint256",
          "name": "newAmount",
          "type": "uint256"
        }
      ],
      "name": "DonateBoozRewardChanged",
      "type": "event"
    },
    {
      "anonymous": false,
      "inputs": [
        {
          "indexed": false,
          "internalType": "uint256",
          "name": "newBps",
          "type": "uint256"
        }
      ],
      "name": "DonationFeeBpsChanged",
      "type": "event"
    },
    {
      "anonymous": false,
      "inputs": [
        {
          "indexed": true,
          "internalType": "uint256",
          "name": "tokenId",
          "type": "uint256"
        },
        {
          "indexed": true,
          "internalType": "address",
          "name": "donor",
          "type": "address"
        },
        {
          "indexed": false,
          "internalType": "uint256",
          "name": "creatorAmount",
          "type": "uint256"
        },
        {
          "indexed": false,
          "internalType": "uint256",
          "name": "feeAmount",
          "type": "uint256"
        },
        {
          "indexed": false,
          "internalType": "address",
          "name": "paymentToken",
          "type": "address"
        }
      ],
      "name": "DonationReceived",
      "type": "event"
    },
    {
      "anonymous": false,
      "inputs": [
        {
          "indexed": true,
          "internalType": "address",
          "name": "newOracle",
          "type": "address"
        }
      ],
      "name": "EthOracleChanged",
      "type": "event"
    },
    {
      "anonymous": false,
      "inputs": [
        {
          "indexed": false,
          "internalType": "uint256",
          "name": "newCost",
          "type": "uint256"
        }
      ],
      "name": "FreeSlotCostChanged",
      "type": "event"
    },
    {
      "anonymous": false,
      "inputs": [
        {
          "indexed": true,
          "internalType": "uint256",
          "name": "tokenId",
          "type": "uint256"
        },
        {
          "indexed": true,
          "internalType": "address",
          "name": "creator",
          "type": "address"
        },
        {
          "indexed": false,
          "internalType": "uint256",
          "name": "tokensBurned",
          "type": "uint256"
        }
      ],
      "name": "FreeSlotMinted",
      "type": "event"
    },
    {
      "anonymous": false,
      "inputs": [
        {
          "indexed": true,
          "internalType": "uint256",
          "name": "tokenId",
          "type": "uint256"
        },
        {
          "indexed": true,
          "internalType": "address",
          "name": "creator",
          "type": "address"
        },
        {
          "indexed": false,
          "internalType": "uint256",
          "name": "wldAmount",
          "type": "uint256"
        }
      ],
      "name": "WLDSlotMinted",
      "type": "event"
    },
    {
      "anonymous": false,
      "inputs": [
        {
          "indexed": true,
          "internalType": "address",
          "name": "user",
          "type": "address"
        },
        {
          "indexed": false,
          "internalType": "uint16",
          "name": "streakCount",
          "type": "uint16"
        },
        {
          "indexed": false,
          "internalType": "uint256",
          "name": "reward",
          "type": "uint256"
        }
      ],
      "name": "GMClaimed",
      "type": "event"
    },
    {
      "anonymous": false,
      "inputs": [
        {
          "indexed": false,
          "internalType": "uint256[7]",
          "name": "newRewards",
          "type": "uint256[7]"
        }
      ],
      "name": "GMDayRewardsChanged",
      "type": "event"
    },
    {
      "anonymous": false,
      "inputs": [
        {
          "indexed": false,
          "internalType": "uint256",
          "name": "newAmount",
          "type": "uint256"
        }
      ],
      "name": "GMFlatDailyRewardChanged",
      "type": "event"
    },
    {
      "anonymous": false,
      "inputs": [
        {
          "indexed": true,
          "internalType": "address",
          "name": "user",
          "type": "address"
        },
        {
          "indexed": false,
          "internalType": "uint16",
          "name": "day",
          "type": "uint16"
        },
        {
          "indexed": false,
          "internalType": "uint256",
          "name": "bonus",
          "type": "uint256"
        }
      ],
      "name": "GMMilestoneReached",
      "type": "event"
    },
    {
      "anonymous": false,
      "inputs": [
        {
          "indexed": false,
          "internalType": "uint256[5]",
          "name": "newRewards",
          "type": "uint256[5]"
        }
      ],
      "name": "GMMilestoneRewardsChanged",
      "type": "event"
    },
    {
      "anonymous": false,
      "inputs": [
        {
          "indexed": true,
          "internalType": "address",
          "name": "wallet",
          "type": "address"
        }
      ],
      "name": "HumanVerified",
      "type": "event"
    },
    {
      "anonymous": false,
      "inputs": [
        {
          "indexed": false,
          "internalType": "uint256",
          "name": "newSize",
          "type": "uint256"
        }
      ],
      "name": "MaxQueueSizeChanged",
      "type": "event"
    },
    {
      "anonymous": false,
      "inputs": [
        {
          "indexed": true,
          "internalType": "address",
          "name": "previousOwner",
          "type": "address"
        },
        {
          "indexed": true,
          "internalType": "address",
          "name": "newOwner",
          "type": "address"
        }
      ],
      "name": "OwnershipTransferred",
      "type": "event"
    },
    {
      "anonymous": false,
      "inputs": [
        {
          "indexed": false,
          "internalType": "address",
          "name": "account",
          "type": "address"
        }
      ],
      "name": "Paused",
      "type": "event"
    },
    {
      "anonymous": false,
      "inputs": [
        {
          "indexed": true,
          "internalType": "address",
          "name": "newToken",
          "type": "address"
        },
        {
          "indexed": false,
          "internalType": "uint256",
          "name": "newPrice",
          "type": "uint256"
        }
      ],
      "name": "PaymentTokenChanged",
      "type": "event"
    },
    {
      "anonymous": false,
      "inputs": [
        {
          "indexed": true,
          "internalType": "address",
          "name": "user",
          "type": "address"
        },
        {
          "indexed": false,
          "internalType": "uint256",
          "name": "amount",
          "type": "uint256"
        },
        {
          "indexed": false,
          "internalType": "string",
          "name": "reason",
          "type": "string"
        }
      ],
      "name": "PointsEarned",
      "type": "event"
    },
    {
      "anonymous": false,
      "inputs": [
        {
          "indexed": true,
          "internalType": "address",
          "name": "newRaffle",
          "type": "address"
        }
      ],
      "name": "RaffleChanged",
      "type": "event"
    },
    {
      "anonymous": false,
      "inputs": [
        {
          "indexed": true,
          "internalType": "address",
          "name": "newToken",
          "type": "address"
        }
      ],
      "name": "RewardTokenChanged",
      "type": "event"
    },
    {
      "anonymous": false,
      "inputs": [
        {
          "indexed": false,
          "internalType": "uint256",
          "name": "newDuration",
          "type": "uint256"
        }
      ],
      "name": "SlotDurationChanged",
      "type": "event"
    },
    {
      "anonymous": false,
      "inputs": [
        {
          "indexed": false,
          "internalType": "uint256",
          "name": "newAmount",
          "type": "uint256"
        }
      ],
      "name": "SlotMintRewardChanged",
      "type": "event"
    },
    {
      "anonymous": false,
      "inputs": [
        {
          "indexed": true,
          "internalType": "uint256",
          "name": "tokenId",
          "type": "uint256"
        },
        {
          "indexed": true,
          "internalType": "address",
          "name": "creator",
          "type": "address"
        },
        {
          "indexed": false,
          "internalType": "uint256",
          "name": "scheduledTime",
          "type": "uint256"
        },
        {
          "indexed": false,
          "internalType": "uint256",
          "name": "endTime",
          "type": "uint256"
        }
      ],
      "name": "SlotMinted",
      "type": "event"
    },
    {
      "anonymous": false,
      "inputs": [
        {
          "indexed": false,
          "internalType": "uint256",
          "name": "newPrice",
          "type": "uint256"
        }
      ],
      "name": "SlotPriceChanged",
      "type": "event"
    },
    {
      "anonymous": false,
      "inputs": [
        {
          "indexed": true,
          "internalType": "address",
          "name": "user",
          "type": "address"
        },
        {
          "indexed": false,
          "internalType": "uint256",
          "name": "pointsBurned",
          "type": "uint256"
        },
        {
          "indexed": false,
          "internalType": "uint256",
          "name": "ticketsMinted",
          "type": "uint256"
        }
      ],
      "name": "TicketsConverted",
      "type": "event"
    },
    {
      "anonymous": false,
      "inputs": [
        {
          "indexed": true,
          "internalType": "address",
          "name": "from",
          "type": "address"
        },
        {
          "indexed": true,
          "internalType": "address",
          "name": "to",
          "type": "address"
        },
        {
          "indexed": true,
          "internalType": "uint256",
          "name": "tokenId",
          "type": "uint256"
        }
      ],
      "name": "Transfer",
      "type": "event"
    },
    {
      "anonymous": false,
      "inputs": [
        {
          "indexed": false,
          "internalType": "address",
          "name": "account",
          "type": "address"
        }
      ],
      "name": "Unpaused",
      "type": "event"
    },
    {
      "anonymous": false,
      "inputs": [
        {
          "indexed": true,
          "internalType": "address",
          "name": "token",
          "type": "address"
        },
        {
          "indexed": true,
          "internalType": "address",
          "name": "to",
          "type": "address"
        },
        {
          "indexed": false,
          "internalType": "uint256",
          "name": "amount",
          "type": "uint256"
        }
      ],
      "name": "Withdrawn",
      "type": "event"
    },
    {
      "anonymous": false,
      "inputs": [
        {
          "indexed": true,
          "internalType": "address",
          "name": "newOracle",
          "type": "address"
        }
      ],
      "name": "WldOracleChanged",
      "type": "event"
    },
    {
      "anonymous": false,
      "inputs": [
        {
          "indexed": true,
          "internalType": "address",
          "name": "newToken",
          "type": "address"
        }
      ],
      "name": "WldTokenChanged",
      "type": "event"
    },
    {
      "anonymous": false,
      "inputs": [
        {
          "indexed": true,
          "internalType": "address",
          "name": "newWorldId",
          "type": "address"
        }
      ],
      "name": "WorldIdChanged",
      "type": "event"
    },
    {
      "inputs": [],
      "name": "PERMIT2",
      "outputs": [
        {
          "internalType": "address",
          "name": "",
          "type": "address"
        }
      ],
      "stateMutability": "view",
      "type": "function"
    },
    {
      "inputs": [],
      "name": "advanceCursor",
      "outputs": [],
      "stateMutability": "nonpayable",
      "type": "function"
    },
    {
      "inputs": [
        {
          "internalType": "address",
          "name": "to",
          "type": "address"
        },
        {
          "internalType": "uint256",
          "name": "tokenId",
          "type": "uint256"
        }
      ],
      "name": "approve",
      "outputs": [],
      "stateMutability": "nonpayable",
      "type": "function"
    },
    {
      "inputs": [
        {
          "internalType": "address",
          "name": "owner",
          "type": "address"
        }
      ],
      "name": "balanceOf",
      "outputs": [
        {
          "internalType": "uint256",
          "name": "",
          "type": "uint256"
        }
      ],
      "stateMutability": "view",
      "type": "function"
    },
    {
      "inputs": [],
      "name": "claimDailyGM",
      "outputs": [],
      "stateMutability": "nonpayable",
      "type": "function"
    },
    {
      "inputs": [
        {
          "internalType": "string",
          "name": "",
          "type": "string"
        }
      ],
      "name": "contentTypeImage",
      "outputs": [
        {
          "internalType": "string",
          "name": "",
          "type": "string"
        }
      ],
      "stateMutability": "view",
      "type": "function"
    },
    {
      "inputs": [
        {
          "internalType": "uint256",
          "name": "amount",
          "type": "uint256"
        }
      ],
      "name": "convertToTickets",
      "outputs": [],
      "stateMutability": "nonpayable",
      "type": "function"
    },
    {
      "inputs": [],
      "name": "discountAmount",
      "outputs": [
        {
          "internalType": "uint256",
          "name": "",
          "type": "uint256"
        }
      ],
      "stateMutability": "view",
      "type": "function"
    },
    {
      "inputs": [],
      "name": "discountBurnCost",
      "outputs": [
        {
          "internalType": "uint256",
          "name": "",
          "type": "uint256"
        }
      ],
      "stateMutability": "view",
      "type": "function"
    },
    {
      "inputs": [
        {
          "internalType": "uint256",
          "name": "tokenId",
          "type": "uint256"
        },
        {
          "internalType": "uint256",
          "name": "amount",
          "type": "uint256"
        }
      ],
      "name": "donate",
      "outputs": [],
      "stateMutability": "nonpayable",
      "type": "function"
    },
    {
      "inputs": [],
      "name": "donateBoozReward",
      "outputs": [
        {
          "internalType": "uint256",
          "name": "",
          "type": "uint256"
        }
      ],
      "stateMutability": "view",
      "type": "function"
    },
    {
      "inputs": [
        {
          "internalType": "address",
          "name": "",
          "type": "address"
        }
      ],
      "name": "donateCooldown",
      "outputs": [
        {
          "internalType": "uint256",
          "name": "",
          "type": "uint256"
        }
      ],
      "stateMutability": "view",
      "type": "function"
    },
    {
      "inputs": [],
      "name": "donatePointReward",
      "outputs": [
        {
          "internalType": "uint256",
          "name": "",
          "type": "uint256"
        }
      ],
      "stateMutability": "view",
      "type": "function"
    },
    {
      "inputs": [
        {
          "internalType": "uint256",
          "name": "tokenId",
          "type": "uint256"
        }
      ],
      "name": "donateWithETH",
      "outputs": [],
      "stateMutability": "payable",
      "type": "function"
    },
    {
      "inputs": [
        {
          "internalType": "uint256",
          "name": "tokenId",
          "type": "uint256"
        },
        {
          "internalType": "uint256",
          "name": "wldAmount",
          "type": "uint256"
        }
      ],
      "name": "donateWithWLD",
      "outputs": [],
      "stateMutability": "nonpayable",
      "type": "function"
    },
    {
      "inputs": [],
      "name": "donationFeeBps",
      "outputs": [
        {
          "internalType": "uint256",
          "name": "",
          "type": "uint256"
        }
      ],
      "stateMutability": "view",
      "type": "function"
    },
    {
      "inputs": [],
      "name": "ethOracle",
      "outputs": [
        {
          "internalType": "address",
          "name": "",
          "type": "address"
        }
      ],
      "stateMutability": "view",
      "type": "function"
    },
    {
      "inputs": [],
      "name": "externalNullifierHash",
      "outputs": [
        {
          "internalType": "uint256",
          "name": "",
          "type": "uint256"
        }
      ],
      "stateMutability": "view",
      "type": "function"
    },
    {
      "inputs": [],
      "name": "freeSlotCost",
      "outputs": [
        {
          "internalType": "uint256",
          "name": "",
          "type": "uint256"
        }
      ],
      "stateMutability": "view",
      "type": "function"
    },
    {
      "inputs": [
        {
          "internalType": "uint256",
          "name": "tokenId",
          "type": "uint256"
        }
      ],
      "name": "getApproved",
      "outputs": [
        {
          "internalType": "address",
          "name": "",
          "type": "address"
        }
      ],
      "stateMutability": "view",
      "type": "function"
    },
    {
      "inputs": [],
      "name": "getCurrentSlot",
      "outputs": [
        {
          "internalType": "uint256",
          "name": "tokenId",
          "type": "uint256"
        },
        {
          "components": [
            {
              "internalType": "string",
              "name": "contentUrl",
              "type": "string"
            },
            {
              "internalType": "string",
              "name": "contentType",
              "type": "string"
            },
            {
              "internalType": "string",
              "name": "aspectRatio",
              "type": "string"
            },
            {
              "internalType": "string",
              "name": "title",
              "type": "string"
            },
            {
              "internalType": "string",
              "name": "authorName",
              "type": "string"
            },
            {
              "internalType": "string",
              "name": "imageUrl",
              "type": "string"
            },
            {
              "internalType": "uint256",
              "name": "scheduledTime",
              "type": "uint256"
            },
            {
              "internalType": "uint256",
              "name": "endTime",
              "type": "uint256"
            },
            {
              "internalType": "address",
              "name": "creator",
              "type": "address"
            },
            {
              "internalType": "uint256",
              "name": "donations",
              "type": "uint256"
            }
          ],
          "internalType": "struct BooztoryWorld.Slot",
          "name": "slot",
          "type": "tuple"
        },
        {
          "internalType": "bool",
          "name": "found",
          "type": "bool"
        }
      ],
      "stateMutability": "view",
      "type": "function"
    },
    {
      "inputs": [],
      "name": "getETHPrice",
      "outputs": [
        {
          "internalType": "uint256",
          "name": "",
          "type": "uint256"
        }
      ],
      "stateMutability": "view",
      "type": "function"
    },
    {
      "inputs": [
        {
          "internalType": "uint256",
          "name": "offset",
          "type": "uint256"
        },
        {
          "internalType": "uint256",
          "name": "limit",
          "type": "uint256"
        }
      ],
      "name": "getPastSlots",
      "outputs": [
        {
          "internalType": "uint256[]",
          "name": "tokenIds",
          "type": "uint256[]"
        },
        {
          "components": [
            {
              "internalType": "string",
              "name": "contentUrl",
              "type": "string"
            },
            {
              "internalType": "string",
              "name": "contentType",
              "type": "string"
            },
            {
              "internalType": "string",
              "name": "aspectRatio",
              "type": "string"
            },
            {
              "internalType": "string",
              "name": "title",
              "type": "string"
            },
            {
              "internalType": "string",
              "name": "authorName",
              "type": "string"
            },
            {
              "internalType": "string",
              "name": "imageUrl",
              "type": "string"
            },
            {
              "internalType": "uint256",
              "name": "scheduledTime",
              "type": "uint256"
            },
            {
              "internalType": "uint256",
              "name": "endTime",
              "type": "uint256"
            },
            {
              "internalType": "address",
              "name": "creator",
              "type": "address"
            },
            {
              "internalType": "uint256",
              "name": "donations",
              "type": "uint256"
            }
          ],
          "internalType": "struct BooztoryWorld.Slot[]",
          "name": "slotData",
          "type": "tuple[]"
        },
        {
          "internalType": "uint256",
          "name": "total",
          "type": "uint256"
        }
      ],
      "stateMutability": "view",
      "type": "function"
    },
    {
      "inputs": [],
      "name": "getQueueSize",
      "outputs": [
        {
          "internalType": "uint256",
          "name": "",
          "type": "uint256"
        }
      ],
      "stateMutability": "view",
      "type": "function"
    },
    {
      "inputs": [],
      "name": "getSlotPriceInETH",
      "outputs": [
        {
          "internalType": "uint256",
          "name": "",
          "type": "uint256"
        }
      ],
      "stateMutability": "view",
      "type": "function"
    },
    {
      "inputs": [],
      "name": "getSlotPriceInWLD",
      "outputs": [
        {
          "internalType": "uint256",
          "name": "",
          "type": "uint256"
        }
      ],
      "stateMutability": "view",
      "type": "function"
    },
    {
      "inputs": [
        {
          "internalType": "uint256",
          "name": "tokenId",
          "type": "uint256"
        }
      ],
      "name": "getSlotStatus",
      "outputs": [
        {
          "internalType": "string",
          "name": "",
          "type": "string"
        }
      ],
      "stateMutability": "view",
      "type": "function"
    },
    {
      "inputs": [
        {
          "internalType": "address",
          "name": "creator",
          "type": "address"
        }
      ],
      "name": "getSlotsByCreator",
      "outputs": [
        {
          "internalType": "uint256[]",
          "name": "tokenIds",
          "type": "uint256[]"
        },
        {
          "components": [
            {
              "internalType": "string",
              "name": "contentUrl",
              "type": "string"
            },
            {
              "internalType": "string",
              "name": "contentType",
              "type": "string"
            },
            {
              "internalType": "string",
              "name": "aspectRatio",
              "type": "string"
            },
            {
              "internalType": "string",
              "name": "title",
              "type": "string"
            },
            {
              "internalType": "string",
              "name": "authorName",
              "type": "string"
            },
            {
              "internalType": "string",
              "name": "imageUrl",
              "type": "string"
            },
            {
              "internalType": "uint256",
              "name": "scheduledTime",
              "type": "uint256"
            },
            {
              "internalType": "uint256",
              "name": "endTime",
              "type": "uint256"
            },
            {
              "internalType": "address",
              "name": "creator",
              "type": "address"
            },
            {
              "internalType": "uint256",
              "name": "donations",
              "type": "uint256"
            }
          ],
          "internalType": "struct BooztoryWorld.Slot[]",
          "name": "slotData",
          "type": "tuple[]"
        }
      ],
      "stateMutability": "view",
      "type": "function"
    },
    {
      "inputs": [],
      "name": "getUpcomingSlots",
      "outputs": [
        {
          "internalType": "uint256[]",
          "name": "tokenIds",
          "type": "uint256[]"
        },
        {
          "components": [
            {
              "internalType": "string",
              "name": "contentUrl",
              "type": "string"
            },
            {
              "internalType": "string",
              "name": "contentType",
              "type": "string"
            },
            {
              "internalType": "string",
              "name": "aspectRatio",
              "type": "string"
            },
            {
              "internalType": "string",
              "name": "title",
              "type": "string"
            },
            {
              "internalType": "string",
              "name": "authorName",
              "type": "string"
            },
            {
              "internalType": "string",
              "name": "imageUrl",
              "type": "string"
            },
            {
              "internalType": "uint256",
              "name": "scheduledTime",
              "type": "uint256"
            },
            {
              "internalType": "uint256",
              "name": "endTime",
              "type": "uint256"
            },
            {
              "internalType": "address",
              "name": "creator",
              "type": "address"
            },
            {
              "internalType": "uint256",
              "name": "donations",
              "type": "uint256"
            }
          ],
          "internalType": "struct BooztoryWorld.Slot[]",
          "name": "slotData",
          "type": "tuple[]"
        }
      ],
      "stateMutability": "view",
      "type": "function"
    },
    {
      "inputs": [],
      "name": "getWLDPrice",
      "outputs": [
        {
          "internalType": "uint256",
          "name": "",
          "type": "uint256"
        }
      ],
      "stateMutability": "view",
      "type": "function"
    },
    {
      "inputs": [
        {
          "internalType": "uint256",
          "name": "",
          "type": "uint256"
        }
      ],
      "name": "gmDayRewards",
      "outputs": [
        {
          "internalType": "uint256",
          "name": "",
          "type": "uint256"
        }
      ],
      "stateMutability": "view",
      "type": "function"
    },
    {
      "inputs": [],
      "name": "gmFlatDailyReward",
      "outputs": [
        {
          "internalType": "uint256",
          "name": "",
          "type": "uint256"
        }
      ],
      "stateMutability": "view",
      "type": "function"
    },
    {
      "inputs": [
        {
          "internalType": "uint256",
          "name": "",
          "type": "uint256"
        }
      ],
      "name": "gmMilestoneDays",
      "outputs": [
        {
          "internalType": "uint16",
          "name": "",
          "type": "uint16"
        }
      ],
      "stateMutability": "view",
      "type": "function"
    },
    {
      "inputs": [
        {
          "internalType": "uint256",
          "name": "",
          "type": "uint256"
        }
      ],
      "name": "gmMilestoneRewards",
      "outputs": [
        {
          "internalType": "uint256",
          "name": "",
          "type": "uint256"
        }
      ],
      "stateMutability": "view",
      "type": "function"
    },
    {
      "inputs": [
        {
          "internalType": "address",
          "name": "",
          "type": "address"
        }
      ],
      "name": "gmStreaks",
      "outputs": [
        {
          "internalType": "uint256",
          "name": "lastClaimDay",
          "type": "uint256"
        },
        {
          "internalType": "uint16",
          "name": "streakCount",
          "type": "uint16"
        },
        {
          "internalType": "uint8",
          "name": "claimedMilestones",
          "type": "uint8"
        }
      ],
      "stateMutability": "view",
      "type": "function"
    },
    {
      "inputs": [
        {
          "internalType": "address",
          "name": "",
          "type": "address"
        }
      ],
      "name": "highestStreak",
      "outputs": [
        {
          "internalType": "uint16",
          "name": "",
          "type": "uint16"
        }
      ],
      "stateMutability": "view",
      "type": "function"
    },
    {
      "inputs": [
        {
          "internalType": "address",
          "name": "owner",
          "type": "address"
        },
        {
          "internalType": "address",
          "name": "operator",
          "type": "address"
        }
      ],
      "name": "isApprovedForAll",
      "outputs": [
        {
          "internalType": "bool",
          "name": "",
          "type": "bool"
        }
      ],
      "stateMutability": "view",
      "type": "function"
    },
    {
      "inputs": [],
      "name": "maxQueueSize",
      "outputs": [
        {
          "internalType": "uint256",
          "name": "",
          "type": "uint256"
        }
      ],
      "stateMutability": "view",
      "type": "function"
    },
    {
      "inputs": [],
      "name": "mintPointReward",
      "outputs": [
        {
          "internalType": "uint256",
          "name": "",
          "type": "uint256"
        }
      ],
      "stateMutability": "view",
      "type": "function"
    },
    {
      "inputs": [
        {
          "internalType": "string",
          "name": "contentUrl",
          "type": "string"
        },
        {
          "internalType": "string",
          "name": "contentType",
          "type": "string"
        },
        {
          "internalType": "string",
          "name": "aspectRatio",
          "type": "string"
        },
        {
          "internalType": "string",
          "name": "title",
          "type": "string"
        },
        {
          "internalType": "string",
          "name": "authorName",
          "type": "string"
        },
        {
          "internalType": "string",
          "name": "imageUrl",
          "type": "string"
        }
      ],
      "name": "mintSlot",
      "outputs": [],
      "stateMutability": "nonpayable",
      "type": "function"
    },
    {
      "inputs": [
        {
          "internalType": "string",
          "name": "contentUrl",
          "type": "string"
        },
        {
          "internalType": "string",
          "name": "contentType",
          "type": "string"
        },
        {
          "internalType": "string",
          "name": "aspectRatio",
          "type": "string"
        },
        {
          "internalType": "string",
          "name": "title",
          "type": "string"
        },
        {
          "internalType": "string",
          "name": "authorName",
          "type": "string"
        },
        {
          "internalType": "string",
          "name": "imageUrl",
          "type": "string"
        }
      ],
      "name": "mintSlotWithDiscount",
      "outputs": [],
      "stateMutability": "nonpayable",
      "type": "function"
    },
    {
      "inputs": [
        {
          "internalType": "string",
          "name": "contentUrl",
          "type": "string"
        },
        {
          "internalType": "string",
          "name": "contentType",
          "type": "string"
        },
        {
          "internalType": "string",
          "name": "aspectRatio",
          "type": "string"
        },
        {
          "internalType": "string",
          "name": "title",
          "type": "string"
        },
        {
          "internalType": "string",
          "name": "authorName",
          "type": "string"
        },
        {
          "internalType": "string",
          "name": "imageUrl",
          "type": "string"
        }
      ],
      "name": "mintSlotWithETH",
      "outputs": [],
      "stateMutability": "payable",
      "type": "function"
    },
    {
      "inputs": [
        {
          "internalType": "string",
          "name": "contentUrl",
          "type": "string"
        },
        {
          "internalType": "string",
          "name": "contentType",
          "type": "string"
        },
        {
          "internalType": "string",
          "name": "aspectRatio",
          "type": "string"
        },
        {
          "internalType": "string",
          "name": "title",
          "type": "string"
        },
        {
          "internalType": "string",
          "name": "authorName",
          "type": "string"
        },
        {
          "internalType": "string",
          "name": "imageUrl",
          "type": "string"
        }
      ],
      "name": "mintSlotWithETHDiscount",
      "outputs": [],
      "stateMutability": "payable",
      "type": "function"
    },
    {
      "inputs": [
        {
          "internalType": "string",
          "name": "contentUrl",
          "type": "string"
        },
        {
          "internalType": "string",
          "name": "contentType",
          "type": "string"
        },
        {
          "internalType": "string",
          "name": "aspectRatio",
          "type": "string"
        },
        {
          "internalType": "string",
          "name": "title",
          "type": "string"
        },
        {
          "internalType": "string",
          "name": "authorName",
          "type": "string"
        },
        {
          "internalType": "string",
          "name": "imageUrl",
          "type": "string"
        }
      ],
      "name": "mintSlotWithTokens",
      "outputs": [],
      "stateMutability": "nonpayable",
      "type": "function"
    },
    {
      "inputs": [
        {
          "internalType": "string",
          "name": "contentUrl",
          "type": "string"
        },
        {
          "internalType": "string",
          "name": "contentType",
          "type": "string"
        },
        {
          "internalType": "string",
          "name": "aspectRatio",
          "type": "string"
        },
        {
          "internalType": "string",
          "name": "title",
          "type": "string"
        },
        {
          "internalType": "string",
          "name": "authorName",
          "type": "string"
        },
        {
          "internalType": "string",
          "name": "imageUrl",
          "type": "string"
        }
      ],
      "name": "mintSlotWithWLD",
      "outputs": [],
      "stateMutability": "nonpayable",
      "type": "function"
    },
    {
      "inputs": [
        {
          "internalType": "string",
          "name": "contentUrl",
          "type": "string"
        },
        {
          "internalType": "string",
          "name": "contentType",
          "type": "string"
        },
        {
          "internalType": "string",
          "name": "aspectRatio",
          "type": "string"
        },
        {
          "internalType": "string",
          "name": "title",
          "type": "string"
        },
        {
          "internalType": "string",
          "name": "authorName",
          "type": "string"
        },
        {
          "internalType": "string",
          "name": "imageUrl",
          "type": "string"
        }
      ],
      "name": "mintSlotWithWLDDiscount",
      "outputs": [],
      "stateMutability": "nonpayable",
      "type": "function"
    },
    {
      "inputs": [],
      "name": "name",
      "outputs": [
        {
          "internalType": "string",
          "name": "",
          "type": "string"
        }
      ],
      "stateMutability": "view",
      "type": "function"
    },
    {
      "inputs": [],
      "name": "nextTokenId",
      "outputs": [
        {
          "internalType": "uint256",
          "name": "",
          "type": "uint256"
        }
      ],
      "stateMutability": "view",
      "type": "function"
    },
    {
      "inputs": [],
      "name": "owner",
      "outputs": [
        {
          "internalType": "address",
          "name": "",
          "type": "address"
        }
      ],
      "stateMutability": "view",
      "type": "function"
    },
    {
      "inputs": [
        {
          "internalType": "uint256",
          "name": "tokenId",
          "type": "uint256"
        }
      ],
      "name": "ownerOf",
      "outputs": [
        {
          "internalType": "address",
          "name": "",
          "type": "address"
        }
      ],
      "stateMutability": "view",
      "type": "function"
    },
    {
      "inputs": [],
      "name": "pause",
      "outputs": [],
      "stateMutability": "nonpayable",
      "type": "function"
    },
    {
      "inputs": [],
      "name": "paused",
      "outputs": [
        {
          "internalType": "bool",
          "name": "",
          "type": "bool"
        }
      ],
      "stateMutability": "view",
      "type": "function"
    },
    {
      "inputs": [],
      "name": "paymentToken",
      "outputs": [
        {
          "internalType": "address",
          "name": "",
          "type": "address"
        }
      ],
      "stateMutability": "view",
      "type": "function"
    },
    {
      "inputs": [
        {
          "internalType": "address",
          "name": "",
          "type": "address"
        }
      ],
      "name": "points",
      "outputs": [
        {
          "internalType": "uint256",
          "name": "",
          "type": "uint256"
        }
      ],
      "stateMutability": "view",
      "type": "function"
    },
    {
      "inputs": [],
      "name": "pointsPerTicket",
      "outputs": [
        {
          "internalType": "uint256",
          "name": "",
          "type": "uint256"
        }
      ],
      "stateMutability": "view",
      "type": "function"
    },
    {
      "inputs": [],
      "name": "queueEndTime",
      "outputs": [
        {
          "internalType": "uint256",
          "name": "",
          "type": "uint256"
        }
      ],
      "stateMutability": "view",
      "type": "function"
    },
    {
      "inputs": [],
      "name": "raffle",
      "outputs": [
        {
          "internalType": "address",
          "name": "",
          "type": "address"
        }
      ],
      "stateMutability": "view",
      "type": "function"
    },
    {
      "inputs": [],
      "name": "renounceOwnership",
      "outputs": [],
      "stateMutability": "nonpayable",
      "type": "function"
    },
    {
      "inputs": [],
      "name": "requireVerification",
      "outputs": [
        {
          "internalType": "bool",
          "name": "",
          "type": "bool"
        }
      ],
      "stateMutability": "view",
      "type": "function"
    },
    {
      "inputs": [],
      "name": "rewardToken",
      "outputs": [
        {
          "internalType": "address",
          "name": "",
          "type": "address"
        }
      ],
      "stateMutability": "view",
      "type": "function"
    },
    {
      "inputs": [
        {
          "internalType": "address",
          "name": "from",
          "type": "address"
        },
        {
          "internalType": "address",
          "name": "to",
          "type": "address"
        },
        {
          "internalType": "uint256",
          "name": "tokenId",
          "type": "uint256"
        }
      ],
      "name": "safeTransferFrom",
      "outputs": [],
      "stateMutability": "nonpayable",
      "type": "function"
    },
    {
      "inputs": [
        {
          "internalType": "address",
          "name": "from",
          "type": "address"
        },
        {
          "internalType": "address",
          "name": "to",
          "type": "address"
        },
        {
          "internalType": "uint256",
          "name": "tokenId",
          "type": "uint256"
        },
        {
          "internalType": "bytes",
          "name": "data",
          "type": "bytes"
        }
      ],
      "name": "safeTransferFrom",
      "outputs": [],
      "stateMutability": "nonpayable",
      "type": "function"
    },
    {
      "inputs": [
        {
          "internalType": "address",
          "name": "operator",
          "type": "address"
        },
        {
          "internalType": "bool",
          "name": "approved",
          "type": "bool"
        }
      ],
      "name": "setApprovalForAll",
      "outputs": [],
      "stateMutability": "nonpayable",
      "type": "function"
    },
    {
      "inputs": [
        {
          "internalType": "string",
          "name": "_contentType",
          "type": "string"
        },
        {
          "internalType": "string",
          "name": "_imageUrl",
          "type": "string"
        }
      ],
      "name": "setContentTypeImage",
      "outputs": [],
      "stateMutability": "nonpayable",
      "type": "function"
    },
    {
      "inputs": [
        {
          "internalType": "uint256",
          "name": "_amount",
          "type": "uint256"
        }
      ],
      "name": "setDiscountAmount",
      "outputs": [],
      "stateMutability": "nonpayable",
      "type": "function"
    },
    {
      "inputs": [
        {
          "internalType": "uint256",
          "name": "_cost",
          "type": "uint256"
        }
      ],
      "name": "setDiscountBurnCost",
      "outputs": [],
      "stateMutability": "nonpayable",
      "type": "function"
    },
    {
      "inputs": [
        {
          "internalType": "uint256",
          "name": "_amount",
          "type": "uint256"
        }
      ],
      "name": "setDonateBoozReward",
      "outputs": [],
      "stateMutability": "nonpayable",
      "type": "function"
    },
    {
      "inputs": [
        {
          "internalType": "uint256",
          "name": "_amount",
          "type": "uint256"
        }
      ],
      "name": "setDonatePointReward",
      "outputs": [],
      "stateMutability": "nonpayable",
      "type": "function"
    },
    {
      "inputs": [
        {
          "internalType": "uint256",
          "name": "_bps",
          "type": "uint256"
        }
      ],
      "name": "setDonationFeeBps",
      "outputs": [],
      "stateMutability": "nonpayable",
      "type": "function"
    },
    {
      "inputs": [
        {
          "internalType": "address",
          "name": "_oracle",
          "type": "address"
        }
      ],
      "name": "setEthOracle",
      "outputs": [],
      "stateMutability": "nonpayable",
      "type": "function"
    },
    {
      "inputs": [
        {
          "internalType": "uint256",
          "name": "_cost",
          "type": "uint256"
        }
      ],
      "name": "setFreeSlotCost",
      "outputs": [],
      "stateMutability": "nonpayable",
      "type": "function"
    },
    {
      "inputs": [
        {
          "internalType": "uint256[7]",
          "name": "_rewards",
          "type": "uint256[7]"
        }
      ],
      "name": "setGMDayRewards",
      "outputs": [],
      "stateMutability": "nonpayable",
      "type": "function"
    },
    {
      "inputs": [
        {
          "internalType": "uint256",
          "name": "_amount",
          "type": "uint256"
        }
      ],
      "name": "setGMFlatDailyReward",
      "outputs": [],
      "stateMutability": "nonpayable",
      "type": "function"
    },
    {
      "inputs": [
        {
          "internalType": "uint256[5]",
          "name": "_rewards",
          "type": "uint256[5]"
        }
      ],
      "name": "setGMMilestoneRewards",
      "outputs": [],
      "stateMutability": "nonpayable",
      "type": "function"
    },
    {
      "inputs": [
        {
          "internalType": "uint256",
          "name": "_size",
          "type": "uint256"
        }
      ],
      "name": "setMaxQueueSize",
      "outputs": [],
      "stateMutability": "nonpayable",
      "type": "function"
    },
    {
      "inputs": [
        {
          "internalType": "uint256",
          "name": "_amount",
          "type": "uint256"
        }
      ],
      "name": "setMintPointReward",
      "outputs": [],
      "stateMutability": "nonpayable",
      "type": "function"
    },
    {
      "inputs": [
        {
          "internalType": "address",
          "name": "_token",
          "type": "address"
        },
        {
          "internalType": "uint256",
          "name": "_price",
          "type": "uint256"
        }
      ],
      "name": "setPaymentToken",
      "outputs": [],
      "stateMutability": "nonpayable",
      "type": "function"
    },
    {
      "inputs": [
        {
          "internalType": "uint256",
          "name": "_amount",
          "type": "uint256"
        }
      ],
      "name": "setPointsPerTicket",
      "outputs": [],
      "stateMutability": "nonpayable",
      "type": "function"
    },
    {
      "inputs": [
        {
          "internalType": "address",
          "name": "_raffle",
          "type": "address"
        }
      ],
      "name": "setRaffle",
      "outputs": [],
      "stateMutability": "nonpayable",
      "type": "function"
    },
    {
      "inputs": [
        {
          "internalType": "bool",
          "name": "_required",
          "type": "bool"
        }
      ],
      "name": "setRequireVerification",
      "outputs": [],
      "stateMutability": "nonpayable",
      "type": "function"
    },
    {
      "inputs": [
        {
          "internalType": "address",
          "name": "_token",
          "type": "address"
        }
      ],
      "name": "setRewardToken",
      "outputs": [],
      "stateMutability": "nonpayable",
      "type": "function"
    },
    {
      "inputs": [
        {
          "internalType": "uint256",
          "name": "_duration",
          "type": "uint256"
        }
      ],
      "name": "setSlotDuration",
      "outputs": [],
      "stateMutability": "nonpayable",
      "type": "function"
    },
    {
      "inputs": [
        {
          "internalType": "uint256",
          "name": "_amount",
          "type": "uint256"
        }
      ],
      "name": "setSlotMintReward",
      "outputs": [],
      "stateMutability": "nonpayable",
      "type": "function"
    },
    {
      "inputs": [
        {
          "internalType": "uint256",
          "name": "_price",
          "type": "uint256"
        }
      ],
      "name": "setSlotPrice",
      "outputs": [],
      "stateMutability": "nonpayable",
      "type": "function"
    },
    {
      "inputs": [
        {
          "internalType": "address",
          "name": "wallet",
          "type": "address"
        },
        {
          "internalType": "bool",
          "name": "verified",
          "type": "bool"
        }
      ],
      "name": "setVerifiedHuman",
      "outputs": [],
      "stateMutability": "nonpayable",
      "type": "function"
    },
    {
      "inputs": [
        {
          "internalType": "address",
          "name": "_oracle",
          "type": "address"
        }
      ],
      "name": "setWldOracle",
      "outputs": [],
      "stateMutability": "nonpayable",
      "type": "function"
    },
    {
      "inputs": [
        {
          "internalType": "address",
          "name": "_token",
          "type": "address"
        }
      ],
      "name": "setWldToken",
      "outputs": [],
      "stateMutability": "nonpayable",
      "type": "function"
    },
    {
      "inputs": [
        {
          "internalType": "address",
          "name": "_worldId",
          "type": "address"
        },
        {
          "internalType": "string",
          "name": "_appId",
          "type": "string"
        },
        {
          "internalType": "string",
          "name": "_action",
          "type": "string"
        }
      ],
      "name": "setWorldId",
      "outputs": [],
      "stateMutability": "nonpayable",
      "type": "function"
    },
    {
      "inputs": [],
      "name": "slotDuration",
      "outputs": [
        {
          "internalType": "uint256",
          "name": "",
          "type": "uint256"
        }
      ],
      "stateMutability": "view",
      "type": "function"
    },
    {
      "inputs": [],
      "name": "slotMintReward",
      "outputs": [
        {
          "internalType": "uint256",
          "name": "",
          "type": "uint256"
        }
      ],
      "stateMutability": "view",
      "type": "function"
    },
    {
      "inputs": [],
      "name": "slotPrice",
      "outputs": [
        {
          "internalType": "uint256",
          "name": "",
          "type": "uint256"
        }
      ],
      "stateMutability": "view",
      "type": "function"
    },
    {
      "inputs": [
        {
          "internalType": "uint256",
          "name": "",
          "type": "uint256"
        }
      ],
      "name": "slots",
      "outputs": [
        {
          "internalType": "string",
          "name": "contentUrl",
          "type": "string"
        },
        {
          "internalType": "string",
          "name": "contentType",
          "type": "string"
        },
        {
          "internalType": "string",
          "name": "aspectRatio",
          "type": "string"
        },
        {
          "internalType": "string",
          "name": "title",
          "type": "string"
        },
        {
          "internalType": "string",
          "name": "authorName",
          "type": "string"
        },
        {
          "internalType": "string",
          "name": "imageUrl",
          "type": "string"
        },
        {
          "internalType": "uint256",
          "name": "scheduledTime",
          "type": "uint256"
        },
        {
          "internalType": "uint256",
          "name": "endTime",
          "type": "uint256"
        },
        {
          "internalType": "address",
          "name": "creator",
          "type": "address"
        },
        {
          "internalType": "uint256",
          "name": "donations",
          "type": "uint256"
        }
      ],
      "stateMutability": "view",
      "type": "function"
    },
    {
      "inputs": [
        {
          "internalType": "bytes4",
          "name": "interfaceId",
          "type": "bytes4"
        }
      ],
      "name": "supportsInterface",
      "outputs": [
        {
          "internalType": "bool",
          "name": "",
          "type": "bool"
        }
      ],
      "stateMutability": "view",
      "type": "function"
    },
    {
      "inputs": [],
      "name": "symbol",
      "outputs": [
        {
          "internalType": "string",
          "name": "",
          "type": "string"
        }
      ],
      "stateMutability": "view",
      "type": "function"
    },
    {
      "inputs": [
        {
          "internalType": "uint256",
          "name": "tokenId",
          "type": "uint256"
        }
      ],
      "name": "tokenURI",
      "outputs": [
        {
          "internalType": "string",
          "name": "",
          "type": "string"
        }
      ],
      "stateMutability": "view",
      "type": "function"
    },
    {
      "inputs": [
        {
          "internalType": "address",
          "name": "from",
          "type": "address"
        },
        {
          "internalType": "address",
          "name": "to",
          "type": "address"
        },
        {
          "internalType": "uint256",
          "name": "tokenId",
          "type": "uint256"
        }
      ],
      "name": "transferFrom",
      "outputs": [],
      "stateMutability": "nonpayable",
      "type": "function"
    },
    {
      "inputs": [
        {
          "internalType": "address",
          "name": "newOwner",
          "type": "address"
        }
      ],
      "name": "transferOwnership",
      "outputs": [],
      "stateMutability": "nonpayable",
      "type": "function"
    },
    {
      "inputs": [],
      "name": "unpause",
      "outputs": [],
      "stateMutability": "nonpayable",
      "type": "function"
    },
    {
      "inputs": [
        {
          "internalType": "address",
          "name": "",
          "type": "address"
        }
      ],
      "name": "verifiedHumans",
      "outputs": [
        {
          "internalType": "bool",
          "name": "",
          "type": "bool"
        }
      ],
      "stateMutability": "view",
      "type": "function"
    },
    {
      "inputs": [
        {
          "internalType": "uint256",
          "name": "root",
          "type": "uint256"
        },
        {
          "internalType": "uint256",
          "name": "nullifierHash",
          "type": "uint256"
        },
        {
          "internalType": "uint256[8]",
          "name": "proof",
          "type": "uint256[8]"
        }
      ],
      "name": "verifyHuman",
      "outputs": [],
      "stateMutability": "nonpayable",
      "type": "function"
    },
    {
      "inputs": [
        {
          "internalType": "address",
          "name": "token",
          "type": "address"
        }
      ],
      "name": "withdraw",
      "outputs": [],
      "stateMutability": "nonpayable",
      "type": "function"
    },
    {
      "inputs": [],
      "name": "wldOracle",
      "outputs": [
        {
          "internalType": "address",
          "name": "",
          "type": "address"
        }
      ],
      "stateMutability": "view",
      "type": "function"
    },
    {
      "inputs": [],
      "name": "wldToken",
      "outputs": [
        {
          "internalType": "address",
          "name": "",
          "type": "address"
        }
      ],
      "stateMutability": "view",
      "type": "function"
    },
    {
      "inputs": [],
      "name": "worldId",
      "outputs": [
        {
          "internalType": "contract IWorldID",
          "name": "",
          "type": "address"
        }
      ],
      "stateMutability": "view",
      "type": "function"
    },
    {
      "stateMutability": "payable",
      "type": "receive"
    }
  ],
  "bytecode": "0x6080604052346105ef576162646080813803918261001c81610612565b9384928339810103126105ef5761003281610637565b9061003f60208201610637565b610057606061005060408501610637565b9301610637565b926100626040610612565b6012815271109bdbde9d1bdc9e4814dc1bdd1b1a59da1d60721b602082015261008b6040610612565b60058152641093d3d4d560da1b6020820152815190916001600160401b03821161041b575f5490600182811c921680156105e5575b602083101461050c5781601f849311610598575b50602090601f8311600114610535575f9261052a575b50508160011b915f199060031b1c1916175f555b8051906001600160401b03821161041b5760015490600182811c92168015610520575b602083101461050c5781601f8493116104b3575b50602090601f831160011461044d575f92610442575b50508160011b915f199060031b1c1916176001555b331561042f5760068054336001600160a01b0319821681179092556001600160a01b03167f8be0079c531659141344cd1fd0a4f28419497f9722a3daafe3b4186f6b6457e05f80a360017f9b779b17422d0df92223018b32b4d1fa46e071723d6817e2486d003becc55f0055620f42406008556103846009556101f4600a55683635c9adc5dea00000600c5569021e19e0c9bab2400000600d55683635c9adc5dea00000600e55620186a0600f556060601155600f6015556005601655683635c9adc5dea00000601755600560185560405160e0810181811060018060401b0382111761041b57604052674563918244f400008152678ac7230489e80000602082015267d02ab486cedc000060408201526801158e460913d00000606082015268015af1d78b58c4000060808201526801a055690d9db8000060a08201526801e5b8fa8fe2ac000060c08201525f5b600781106103fd5750506802b5e3af16b1880000602a556102ce6105f3565b60078152600e6020820152601e6040820152603c6060820152605a60808201525f905f5b600581106103d8575050602b556103076105f3565b6802b5e3af16b18800008152680d8d726b7177a8000060208201526812f939c99edab800006040820152681b1ae4d6e2ef500000606082015268f732b66015a540000060808201525f5b600581106103ba575050600780546001600160a01b03199081166001600160a01b039384161790915560128054821693831693909317909255601380548316938216939093179092556014805490911692909116919091179055604051615c0290816106628239f35b81516001600160481b0316602c820155602090910190600101610351565b9091602060019160ff8551169061ffff8560041b92831b921b191617930191016102f2565b81516001600160481b031660238201556020909101906001016102af565b634e487b7160e01b5f52604160045260245ffd5b631e4fbdf760e01b5f525f60045260245ffd5b015190505f8061014b565b60015f9081528281209350601f198516905b81811061049b5750908460019594939210610483575b505050811b01600155610160565b01515f1960f88460031b161c191690555f8080610475565b9293602060018192878601518155019501930161045f565b60015f526104fc907fb10e2d527612073b26eecdfd717e6a320cf44b4afac2b0732d9fcbe2b7fa0cf6601f850160051c81019160208610610502575b601f0160051c019061064b565b5f610135565b90915081906104ef565b634e487b7160e01b5f52602260045260245ffd5b91607f1691610121565b015190505f806100ea565b5f8080528281209350601f198516905b8181106105805750908460019594939210610568575b505050811b015f556100fe565b01515f1960f88460031b161c191690555f808061055b565b92936020600181928786015181550195019301610545565b5f80526105df907f290decd9548b62a8d60345a988386fc84ba6bc95484008f6362f93160ef3e563601f850160051c8101916020861061050257601f0160051c019061064b565b5f6100d4565b91607f16916100c0565b5f80fd5b6040519060a082016001600160401b0381118382101761041b57604052565b6040519190601f01601f191682016001600160401b0381118382101761041b57604052565b51906001600160a01b03821682036105ef57565b818110610656575050565b5f815560010161064b56fe60c0604052600436101561001a575b3615610018575f80fd5b005b5f5f3560e01c806283f05d1461385657806288d8ce1461381257806301ffc9a7146137a457806304e046561461378757806306fdde03146136c0578063081812fc14613684578063095ea7b31461359a57806309630254146134885780630a1c76621461346a5780630be6a6aa146133635780630cdd53f6146132855780630d31ddd4146132125780630ead865d146131f45780631006d7b3146131d65780631371dc3a1461318857806315ed71f21461312057806318e67ac0146130c75780631dc3c96614613056578063217ddb661461303857806323b872dd146130205780632a5f2faa14612ec15780633013ce2914612e98578063327e4e2d14612e7a57806333c1420a14612e51578063358b816614612e18578063387dd9e914612d06578063388cbc0d14612c665780633a18376014612b5f5780633dfcf4db14612b0d5780633f4ba83a14612a9d57806342842e0e14612a7357806343297a0d1461297857806346ba83e8146128205780634bff7b4e146127d25780634da24edf1461278157806351cff8d9146125b25780635499e7f0146125655780635608c7271461253757806356e51b3b1461251957806359dd06aa146124fb5780635a9775bd146123f15780635ac60d0b146123c85780635c975abb146123a257806362b988c8146123655780636352211e1461233457806369ea8910146122c15780636afdd850146122975780636d7958491461220257806370a08231146121af578063715018a614612165578063753e9ef01461213c57806375794a3c1461211e5780637e57bf10146120f1578063803d5fea146120d35780638456cb59146120705780638909c19b14611f285780638aee812714611ec05780638cb0df8a14611dd85780638da5cb5b14611daf578063959f753614611bf557806395d89b4114611b265780639957459f14611ae85780639a59eaec14611aca5780639be3783d14611aa15780639c8762e114611a785780639cc5969014611a3a5780639e08ac25146119ad578063a22cb465146118f0578063a526aeb5146118b8578063a607a8d91461188f578063a6c14fb01461186f578063a6cd75dc14611808578063abb063f9146117ea578063ad030657146117cc578063af68fac6146117ae578063b3afd78f14611752578063b5c81b4a1461172f578063b88d4fde146116cc578063bbc57bb514611615578063bccb0749146115f7578063c102136e146115c9578063c2af0d8014611561578063c87b56dd14611298578063cbc81a261461126b578063cce20668146110c7578063ce348c6f1461105c578063cf12455b14610bf1578063d23a09b614610b45578063d28b152114610ac6578063d31edd6a14610a8d578063d7b7da4814610a6a578063d7f862cd14610a1c578063d8e3784c146109da578063e27b9891146109b7578063e2adc24414610926578063e6bfe851146108f5578063e985e9c51461089d578063ea46ad2314610835578063f23926d01461068a578063f2fde38b14610614578063f56cc66514610539578063f7c618c114610510578063f7d9cc1e146104f25763ff304d751461049b575061000e565b346104ef5760203660031901126104ef576060906040906001600160a01b036104c26138d1565b16815260226020522060ff6001825492015460405192835261ffff8116602084015260101c166040820152f35b80fd5b50346104ef57806003193601126104ef576020601154604051908152f35b50346104ef57806003193601126104ef57600b546040516001600160a01b039091168152602090f35b50346104ef5760403660031901126104ef576105536138d1565b6024359061055f614792565b6001600160a01b031680156105d7578160209161058b5f516020615acd5f395f51905f52941515613db2565b600780546001600160a01b0319168217905560088290556040518281527f6a9d944da705340e0428e58c1cce0ae39fa9d014d36003b32dd5fda731509c24908490a2604051908152a180f35b60405162461bcd60e51b8152602060048201526015602482015274496e76616c696420746f6b656e206164647265737360581b6044820152606490fd5b50346104ef5760203660031901126104ef5761062e6138d1565b610636614792565b6001600160a01b0316801561067657600680546001600160a01b0319811683179091556001600160a01b03165f516020615b6d5f395f51905f528380a380f35b631e4fbdf760e01b82526004829052602482fd5b50346104ef576106993661392a565b996106ae9991999892989793979694966147ed565b6106b6614825565b601f5460ff168d8161081d575b5061080e57600b546001600160a01b03166106df811515613df2565b6106ee600f5460085411613e35565b6012546001600160a01b0316156107ff57600e548e91803b156107fb5760405163079cc67960e41b81529183918391829084908290610731903360048401613e7f565b03925af180156107f0576107d7575b50506107839b61077e61076d61075b600854600f5490613e9a565b6013546001600160a01b031690615715565b6012546001600160a01b0316614843565b6148b8565b61078b615479565b600e5490600f5460405192835260208301527f39e0fad9ad287e4e0bdd6f6b12705a21a0891e5ba5f40dbaa7af6c136132d3b460403393a360015f516020615bad5f395f51905f525580f35b816107e191613aba565b6107ec578c5f610740565b8c80fd5b6040513d84823e3d90fd5b8280fd5b6323d7072f60e21b8e5260048efd5b6329c1fbb960e01b8d5260048dfd5b60ff915060409033815260208052205416158d6106c3565b50346104ef5760203660031901126104ef5761084f6138d1565b610857614792565b601280546001600160a01b0319166001600160a01b039290921691821790557f846e534b69d5779aec69d25a81b7ac923e48836fc49fd5b5bd300cdfb3df70bc8280a280f35b50346104ef5760403660031901126104ef5760406108b96138d1565b916108c26138e7565b9260018060a01b031681526005602052209060018060a01b03165f52602052602060ff60405f2054166040519015158152f35b50346104ef57806003193601126104ef5760135460209061091e906001600160a01b03166157f7565b604051908152f35b50346104ef5760203660031901126104ef57600435610943614792565b801561097b576020817fa3288de7cc852e451384563508fc53be360f51becb4c8932f448accd236d860592600955604051908152a180f35b60405162461bcd60e51b815260206004820152601460248201527304475726174696f6e206d757374206265203e20360641b6044820152606490fd5b50346104ef5760203660031901126104ef576109d1614792565b60043560165580f35b50346104ef57806003193601126104ef576109f36146fa565b6040519283526060602084018190528392610a1091840190613bb0565b90151560408301520390f35b50346104ef5760203660031901126104ef577ff9d13f2b991281c136fe79184f3b9f6eed87d8bd28e8f2b132e9bdb625d7c16c6020600435610a5c614792565b80600c55604051908152a180f35b50346104ef5760203660031901126104ef57610a84614792565b60043560155580f35b50346104ef5760203660031901126104ef576020906040906001600160a01b03610ab56138d1565b168152601b83522054604051908152f35b50346104ef5760203660031901126104ef57600435906001600160401b0382116104ef57366023830112156104ef57610b41610b2d602080610b1036600488013560248901613d3d565b604051928184925191829101835e8101601c815203019020613add565b6040519182916020835260208301906138ad565b0390f35b50610b4f3661392a565b99610b679c9b9c9991999892989793979694966147ed565b610b6f614825565b60ff601f541680610bdb575b610bcc57610baf9b9c61077e610b9e60085460018060a01b036014541690615715565b610baa813410156142d6565b61574b565b50610bb8615479565b60015f516020615bad5f395f51905f525580f35b6329c1fbb960e01b8c5260048cfd5b50338c526020805260ff60408d20541615610b7b565b50346104ef57806003193601126104ef57610c0a614825565b60ff601f541680611046575b61103757600b54610c31906001600160a01b03161515613df2565b620151804204903381526022602052604081208054838114610ffa575f19840190848211610fa7571480610fe9575b15610fdf57600161ffff81830154160161ffff8111610eff5790600191935b815501805461ffff191661ffff8085169182178355338452601a602052604084205492949192168211610fc3575b60078211610fbb575f19820161ffff8111610fa75760071115610dd25760228201545b80610f13575b506001919050605a8111610eda57825b600581101580610ecf5761ffff610cfc83613cf3565b90549060031b1c168314610d135750600101610ce6565b9150936001851b8154908160101c9060ff8183161615610dfa575b50506040519291505060a082016001600160401b03811183821017610de6576040526001825260016020830152600260408301526002606083015260036080830152610dd257610d84929360051b015190613f70565b338252601960205260408220610d9b828254613f70565b9055604051908152604060208201526002604082015261676d60f01b60608201525f516020615b0d5f395f51905f5260803392a280f35b634e487b7160e01b83526032600452602483fd5b634e487b7160e01b85526041600452602485fd5b62ff00009293945060ff80911691161760101b169062ff000019161790558183602c015460018060a01b03600b5416803b15610ecb57604051634d24848760e11b8152859182908290818381610e54893360048401613e7f565b03925af1610eb2575b50507fc5deabc5dc9a98de8bd6cdc93f3e6fe7cd5773444d3ee667739ea60419828617610ea661ffff610e8f88613cf3565b90549060031b1c16926040519182913395836146e4565b0390a25f808080610d2e565b81610ebc91613aba565b610ec757835f610e5d565b8380fd5b8480fd5b505050909150610d84565b919250906059190161ffff8111610eff5761ffff601e911606610d8457506004610d84565b634e487b7160e01b83526011600452602483fd5b600b546001600160a01b0316803b15610ecb57604051634d24848760e11b8152859182908290818381610f4a893360048401613e7f565b03925af1610f92575b5050610f887fbc403d828b372564cef8de13dec98155dab62609a69da73e0d7f12b666df4d68916040519182913395836146e4565b0390a25f80610cd6565b81610f9c91613aba565b610ec757835f610f53565b634e487b7160e01b84526011600452602484fd5b602a54610cd0565b338352601a60205260408320805461ffff191683179055610cad565b6001908193610c7f565b5061ffff6001820154161515610c60565b60405162461bcd60e51b8152602060048201526015602482015274416c726561647920636c61696d656420746f64617960581b6044820152606490fd5b6329c1fbb960e01b8152600490fd5b503381526020805260ff60408220541615610c16565b50346104ef57806003193601126104ef57603254428111156110be57611083904290613e9a565b906110916009548093613f70565b5f198101919082116110aa575060209161091e91613f52565b634e487b7160e01b81526011600452602490fd5b5060209061091e565b50346104ef5760203660031901126104ef5760043560ff601f541680611255575b611246576010546001600160a01b03161561121057611108811515613efe565b61111460185482613f3f565b903383526019602052816040842054106111d55733835260196020526040832061113f838254613e9a565b905560105483906001600160a01b0316803b156111d15781604051809263ac46f3d360e01b8252818381611177893360048401613e7f565b03925af180156107f0576111bc575b505060405191825260208201527f2d94adb7b65ed51b513c751bc230727b7834b5ba10c7349aef52cd87b7edef2e60403392a280f35b816111c691613aba565b6107fb57825f611186565b5080fd5b60405162461bcd60e51b8152602060048201526013602482015272496e73756666696369656e7420706f696e747360681b6044820152606490fd5b60405162461bcd60e51b815260206004820152600e60248201526d149859999b19481b9bdd081cd95d60921b6044820152606490fd5b6329c1fbb960e01b8252600482fd5b503382526020805260ff604083205416156110e8565b50346104ef57806003193601126104ef5760085460145460209161091e916001600160a01b031690615715565b50346104ef5760203660031901126104ef57600435906112bb6031548310613ebb565b8181526034602052604081209060018201916112ee6040516020816112e0818861467a565b601c81520301902054613a52565b156115585750604051602081611304818661467a565b601c815203019020925b60405193829080549361132085613a52565b9182885260208801956001811690815f1461153857506001146114fb575b610b416020610b2d60048b6114d98c60ad60538e6113688f8f88611363910389613aba565b6158cf565b95604051998a977519185d184e985c1c1b1a58d85d1a5bdb8bda9cdbdb8b60521b828a01527f7b226e616d65223a22426f6f7a746f72792053706f746c69676874202300000060368a0152805191829101858a015e61088b60f21b908801848101919091527f226465736372697074696f6e223a2245766572792073706f746c69676874206960558201527f732061206d6f6d656e742e20596f7572732c20666f7265766572206f6e2d6368607582015265185a5b8b888b60d21b6095820152681134b6b0b3b2911d1160b91b609b820152905191829060a483015e010161088b60f21b60518201527f2265787465726e616c5f75726c223a2268747470733a2f2f626f6f7a746f72796053820152650b98dbdb488b60d21b60738201526d2261747472696275746573223a5b60901b60798201527f7b2274726169745f74797065223a22436f6e74656e742054797065222c227661608782015265363ab2911d1160d11b60a7820152019061467a565b61227d60f01b8152615d7d60f01b600282015203601b19810184520182613aba565b9080935052602082205b81831061151e57505084016020016114d98460ad61133e565b6001816020929493945483858b0101520191019190611505565b60ff19168752505050151560051b850160200190506114d98460ad61133e565b6005019261130e565b50346104ef5760203660031901126104ef5761157b6138d1565b611583614792565b601380546001600160a01b0319166001600160a01b039290921691821790557fb7304b5d7cd2ec7f7e907603b175215de96f4f1c0dc342cea6ab3925a272be3d8280a280f35b50346104ef5760203660031901126104ef5760043560078110156111d1576020915060230154604051908152f35b50346104ef57806003193601126104ef576020601854604051908152f35b50346104ef5760203660031901126104ef57600435611632614792565b61163d811515613efe565b600854811015611679576020817f29729907d1b9b3d08edb0d43ede5ac65620d9ac9a7017f0d14bfb70ed53200cb92600f55604051908152a180f35b60405162461bcd60e51b815260206004820152602560248201527f446973636f756e74206d757374206265206c657373207468616e20736c6f7420604482015264707269636560d81b6064820152608490fd5b50346104ef5760803660031901126104ef576116e66138d1565b6116ee6138e7565b606435916001600160401b038311610ec75736602384011215610ec75761172261172c933690602481600401359101613d3d565b9160443591614561565b80f35b50346104ef57806003193601126104ef57602060ff601f54166040519015158152f35b50346104ef5760203660031901126104ef5760043561176f614792565b801561177b5760185580f35b60405162461bcd60e51b815260206004820152600b60248201526a04d757374206265203e20360ac1b6044820152606490fd5b50346104ef57806003193601126104ef576020600e54604051908152f35b50346104ef57806003193601126104ef576020600c54604051908152f35b50346104ef57806003193601126104ef576020602a54604051908152f35b50346104ef5760203660031901126104ef576118226138d1565b61182a614792565b601480546001600160a01b0319166001600160a01b039290921691821790557eb66df1ae8fb6f7d1bdfebd4aa5a71bf83b26507de19a23415c677a724ab70c8280a280f35b50346104ef5760203660031901126104ef57610b41610b2d6004356144cb565b50346104ef57806003193601126104ef5760145460209061091e906001600160a01b03166157f7565b50346104ef5760203660031901126104ef576004358015158091036111d1576118df614792565b60ff8019601f5416911617601f5580f35b50346104ef5760403660031901126104ef5761190a6138d1565b611912613ce4565b903315611999576001600160a01b031690811561198557338352600560205260408320825f526020526119548160405f209060ff801983541691151516179055565b60405190151581527f17307eab39ab6107e8899845ad3d59bd9653f200f220920489ca2b5937696c3160203392a380f35b630b61174360e31b83526004829052602483fd5b63a9fbf51f60e01b83526004839052602483fd5b50346104ef5760203660031901126104ef576004356119ca614792565b8015611a02576020817fdd88fbb63dc4d17d453ac4e65dee2a10ad32d4bd50d8634822185b5e26377cd492601155604051908152a180f35b60405162461bcd60e51b815260206004820152601060248201526f053697a65206d757374206265203e20360841b6044820152606490fd5b50346104ef5760203660031901126104ef5760209061ffff906040906001600160a01b03611a666138d1565b168152601a8452205416604051908152f35b50346104ef57806003193601126104ef576014546040516001600160a01b039091168152602090f35b50346104ef57806003193601126104ef576012546040516001600160a01b039091168152602090f35b50346104ef57806003193601126104ef576020600f54604051908152f35b50346104ef5760203660031901126104ef5760209060ff906040906001600160a01b03611b136138d1565b1681528380522054166040519015158152f35b50346104ef57806003193601126104ef57604051908060015490611b4982613a52565b8085529160018116908115611bce5750600114611b71575b610b4184610b2d81860382613aba565b600181527fb10e2d527612073b26eecdfd717e6a320cf44b4afac2b0732d9fcbe2b7fa0cf6939250905b808210611bb457509091508101602001610b2d82611b61565b919260018160209254838588010152019101909291611b9b565b60ff191660208087019190915292151560051b85019092019250610b2d9150839050611b61565b50346104ef5760403660031901126104ef576004356001600160401b0381116111d157611c269036906004016138fd565b91906024356001600160401b0381116107fb57611c479036906004016138fd565b9390611c51614792565b60405182848237601c8382019081528190036020019020946001600160401b038111610de657611c818654613a52565b601f8111611d74575b508495601f8211600114611cff5790611cee92918187985f516020615b2d5f395f51905f529891611cf4575b508260011b905f198460031b1c19161790555b611ce06040519586956040875260408701916144ab565b9184830360208601526144ab565b0390a180f35b90508301355f611cb6565b80865260208620601f198316875b818110611d5c5750905f516020615b2d5f395f51905f52979884611cee9695949310611d43575b5050600182811b019055611cc9565b8401355f19600385901b60f8161c191690555f80611d34565b858a013583556020998a019960019093019201611d0d565b611d9f9087875260208720601f840160051c81019160208510611da5575b601f0160051c0190613f7d565b5f611c8a565b9091508190611d92565b50346104ef57806003193601126104ef576006546040516001600160a01b039091168152602090f35b50346104ef57806003193601126104ef578081603154905b818110611e8d5750611e0a611e048361414f565b926141d0565b9280805b838110611e245760405180610b41888883613cbc565b808252603460205260066040832001544210611e43575b600101611e0e565b91611e858184611e556001948961421f565b528484526034602052611e6a60408520614233565b611e74828a61421f565b52611e7f818961421f565b5061412a565b929050611e3b565b808452603460205260066040852001544210611eac575b600101611df0565b91611eb860019161412a565b929050611ea4565b50346104ef5760203660031901126104ef57611eda6138d1565b611ee2614792565b600b80546001600160a01b0319166001600160a01b039290921691821790557fb74d956cf6ec7842d08ebf0ab19ec03a88c1efd4a50ea4349d30f9c4ce512e988280a280f35b50346104ef576101403660031901126104ef5760243536610144116111d157601d546001600160a01b0316801561206157818352602160205260ff604084205416612052578290611f926040513360601b602082015260148152611f8d603482613aba565b6157ae565b601e54823b15610ec7576101a484926040519485938492633bc778e360e01b845260043560048501526001602485015260448401528860648401526084830152610100604460a48401375afa80156107f05761203d575b5052602160205260408120600160ff198254161790553381526020805260408120600160ff19825416179055337f18aa7984218b8492418e2b0ea6d827885e0ae687cc0ccb316cb9f55b85d7241e8280a280f35b8161204791613aba565b6111d157815f611fe9565b63e1200f1d60e01b8352600483fd5b63615b8c4960e01b8352600483fd5b50346104ef57806003193601126104ef57612089614792565b612091614825565b6006805460ff60a01b1916600160a01b1790556040513381527f62e78cea01bee320cd4e420270b5ea74000d11b0c9f74754ebdbfc544b05a25890602090a180f35b50346104ef57806003193601126104ef576020600d54604051908152f35b50346104ef57806003193601126104ef5760085460135460209161091e916001600160a01b031690615715565b50346104ef57806003193601126104ef576020603154604051908152f35b50346104ef57806003193601126104ef57601d546040516001600160a01b039091168152602090f35b50346104ef57806003193601126104ef5761217e614792565b600680546001600160a01b0319811690915581906001600160a01b03165f516020615b6d5f395f51905f528280a380f35b50346104ef5760203660031901126104ef576001600160a01b036121d16138d1565b1680156121ee578160409160209352600383522054604051908152f35b6322718ad960e21b82526004829052602482fd5b50346104ef5760203660031901126104ef5760043561221f614792565b6103e8811161225a576020817feab2da822f943678534a443cae01a394d0a1f5186ecbec30430e14746a57ce5892600a55604051908152a180f35b60405162461bcd60e51b81526020600482015260156024820152744665652063616e6e6f74206578636565642031302560581b6044820152606490fd5b50346104ef57806003193601126104ef5760206040516e22d473030f116ddee9f6b43ac78ba38152f35b50346104ef5760a03660031901126104ef573660a4116104ef576122e3614792565b6004815b6005811061231f57827f602019dee3b1674ae0bdbbb2806f7e0ff9f281d5c64435b8e30750eabf2a10dd60a06040518160048237a180f35b6001906020833593019281602c0155016122e7565b50346104ef5760203660031901126104ef5760206123536004356147b9565b6040516001600160a01b039091168152f35b50346104ef5760203660031901126104ef576004359060058210156104ef57602061ffff61239284613cf3565b90549060031b1c16604051908152f35b50346104ef57806003193601126104ef57602060ff60065460a01c166040519015158152f35b50346104ef57806003193601126104ef576013546040516001600160a01b039091168152602090f35b50346104ef5760603660031901126104ef5761240b6138d1565b6024356001600160401b0381116107fb5761242a9036906004016138fd565b9091604435916001600160401b038311610ecb57604060206124ab611f8d93611f8d61245d6124d19836906004016138fd565b949097612468614792565b601d80546001600160a01b0319166001600160a01b039290921691821790558651909a9093849181908484013781018c838201520301601f198101835282613aba565b90808351958693602085015284840137810187838201520301601f198101835282613aba565b601e557f146cd4334e139a42a4ac85acadecbcd96a0a627b345b2a1f3ef239bc7c3a3c758280a280f35b50346104ef57806003193601126104ef576020601e54604051908152f35b50346104ef57806003193601126104ef576020603254604051908152f35b50346104ef5760203660031901126104ef5760043560058110156111d15760209150602c0154604051908152f35b50346104ef5761259a6125a861258361257d36613a02565b90614344565b919290604051948594606086526060860190613b7d565b908482036020860152613c64565b9060408301520390f35b50346104ef5760203660031901126104ef576125cc6138d1565b6125d4614792565b6125dc6147ed565b6006546001600160a01b039081169116806126b35750478015612679578280808084865af1612609614315565b501561263c575f516020615b4d5f395f51905f5260208492604051908152a360015f516020615bad5f395f51905f525580f35b60405162461bcd60e51b8152602060048201526015602482015274115512081dda5d1a191c985dd85b0819985a5b1959605a1b6044820152606490fd5b60405162461bcd60e51b81526020600482015260126024820152714e6f2045544820746f20776974686472617760701b6044820152606490fd5b6040516370a0823160e01b8152306004820152602081602481855afa908115612776578491612744575b50801561270c576020816127005f516020615b4d5f395f51905f5293868661558f565b604051908152a3610bb8565b60405162461bcd60e51b815260206004820152601060248201526f4e6f20746f6b656e2062616c616e636560801b6044820152606490fd5b90506020813d60201161276e575b8161275f60209383613aba565b81010312610ec757515f6126dd565b3d9150612752565b6040513d86823e3d90fd5b50346104ef5760403660031901126104ef5761172c61279e6138d1565b6127a6613ce4565b906127af614792565b60018060a01b0316835260208052604083209060ff801983541691151516179055565b50346104ef5760203660031901126104ef577f7277db45fa2f52e08966ae20fb014e3a9707bce667119c97e7a560eef62751386020600435612812614792565b80602a55604051908152a180f35b5060203660031901126104ef576004356128386147ed565b612840614825565b61284d6031548210613ebb565b612858341515613efe565b8082526034602052604082206008810154600a549291906001600160a01b031661288f6127106128888634613f3f565b0434613e9a565b93858080806127106128d060018060a01b03601454166128c86128c26c02deaf189c140c16b7c528f679602a1b926157f7565b34613f3f565b049687613f3f565b0498865af16128dd614315565b501561293a576129028592600961290795016128fa848254613f70565b905533615610565b613e9a565b9160405192835260208301525f516020615aed5f395f51905f5260403393a360015f516020615bad5f395f51905f525580f35b60405162461bcd60e51b815260206004820152601660248201527510dc99585d1bdc881c185e5b595b9d0819985a5b195960521b6044820152606490fd5b506129823661392a565b996129979991999892989793979694966147ed565b61299f614825565b601f5460ff168d81612a5b575b5061080e57600b548d906001600160a01b03166129ca811515613df2565b6129d9600f5460085411613e35565b600e5490803b156107fb5760405163079cc67960e41b81529183918391829084908290612a0a903360048401613e7f565b03925af180156107f057612a46575b50506107839b61077e610b9e612a34600854600f5490613e9a565b6014546001600160a01b031690615715565b81612a5091613aba565b6107ec578c5f612a19565b60ff915060409033815260208052205416158d6129ac565b50346104ef5761172c612a8536613a18565b9060405192612a95602085613aba565b858452614561565b50346104ef57806003193601126104ef57612ab6614792565b60065460ff8160a01c1615612afe5760ff60a01b19166006556040513381527f5db9ee0a495bf2e6ff9c91a7834c1ba4fdd244a5e8aa4e537bd38aeae4b073aa90602090a180f35b638dfc202b60e01b8252600482fd5b50346104ef57806003193601126104ef575b603354603154811080612b47575b15612b4357612b3b9061412a565b603355612b1f565b5080f35b50808252603460205260076040832001544211612b2d565b50346104ef5760203660031901126104ef57612b796138d1565b60315482916001600160a01b0316825b828110612c2a5750612ba3612b9d8461414f565b936141d0565b938091815b848110612bbe5760405180610b41898983613cbc565b808352603460205260408320600801546001600160a01b03168214612be6575b600101612ba8565b92612c228185612bf86001948a61421f565b528585526034602052612c0d60408620614233565b612c17828b61421f565b52611e7f818a61421f565b939050612bde565b808552603460205260408520600801546001600160a01b03168214612c52575b600101612b89565b92612c5e60019161412a565b939050612c4a565b50346104ef57612c753661392a565b99612c8d9c9b9c9991999892989793979694966147ed565b612c95614825565b60ff601f541680612cf0575b610bcc576012546001600160a01b03169c8d15612ce1576008546013549d9e610baf9e61077e92612cdb916001600160a01b031690615715565b90614843565b6323d7072f60e21b8d5260048dfd5b50338c526020805260ff60408d20541615612ca1565b50346104ef5760203660031901126104ef576004358152603460205260409020612d2f81613add565b612d3b60018301613add565b91612d4860028201613add565b612d5460038301613add565b91612d6160048201613add565b92612d6e60058301613add565b600683015494600784015492600160a01b60019003600886015416946009015495604051998a996101408b526101408b01612da8916138ad565b8a810360208c0152612db9916138ad565b89810360408b0152612dca916138ad565b88810360608a0152612ddb916138ad565b8781036080890152612dec916138ad565b86810360a0880152612dfd916138ad565b9360c086015260e08501526101008401526101208301520390f35b50346104ef5760203660031901126104ef576020906040906001600160a01b03612e406138d1565b168152601983522054604051908152f35b50346104ef57806003193601126104ef576010546040516001600160a01b039091168152602090f35b50346104ef57806003193601126104ef576020601654604051908152f35b50346104ef57806003193601126104ef576007546040516001600160a01b039091168152602090f35b50346104ef57612ed03661392a565b99612ee59991999892989793979694966147ed565b612eed614825565b601f5460ff168d81613008575b5061080e57600b548d906001600160a01b0316612f18811515613df2565b600d5490803b156107fb5760405163079cc67960e41b81529183918391829084908290612f49903360048401613e7f565b03925af180156107f057612ff3575b5050612f639b6148b8565b60155480612fb1575b50600d54906040519182527f39979fc515e5c3912459df571fe08dab2595f77efafd537a00fbe8b293c6a3fa60203393a360015f516020615bad5f395f51905f525580f35b3383526019602052612fc860408420918254613f70565b90556015545f516020615b0d5f395f51905f5260405180612fea339482614106565b0390a25f612f6c565b81612ffd91613aba565b6107ec578c5f612f58565b60ff915060409033815260208052205416158d612efa565b50346104ef5761172c61303236613a18565b91613f93565b50346104ef57806003193601126104ef576020601754604051908152f35b50346104ef576130653661392a565b9961307d9c9b9c9991999892989793979694966147ed565b613085614825565b60ff601f5416806130b1575b610bcc57610baf9b9c61077e60018060a01b036007541660085490614843565b50338c526020805260ff60408d20541615613091565b50346104ef5760203660031901126104ef577f9634c4ae98b81bdc5adac938caa37a45df47ac38283dbaedde0675d1b563e6146020600435613107614792565b613112811515613d73565b80600e55604051908152a180f35b50346104ef5760203660031901126104ef5761313a6138d1565b613142614792565b601080546001600160a01b0319166001600160a01b039290921691821790557f15a48010f30cc525d6f91a1ecb43798e93c9155379affebf1a1ee8d182913ad78280a280f35b50346104ef5760203660031901126104ef577f3fdb58136854c4dccdcf19a9571bd0b7f05cdbddf2cf13ea1906d62a66fdb52d60206004356131c8614792565b80601755604051908152a180f35b50346104ef57806003193601126104ef576020600a54604051908152f35b50346104ef57806003193601126104ef576020600954604051908152f35b50346104ef5760e03660031901126104ef573660e4116104ef57613234614792565b6004815b6007811061327057827f183a849785cbef9436ca3828957f355c1e6e59790ada47e6b57c0e2725a3ee3160e06040518160048237a180f35b60019060208335930192816023015501613238565b50346104ef5761329436613a02565b9061329d6147ed565b6132a5614825565b6132b26031548210613ebb565b6132bd821515613efe565b8083526034602052604083209161333160018060a01b036008850154166127106132e9600a5485613f3f565b04926128fa60096132fa8684613e9a565b9761330f8460018060a01b0360075416614843565b600754613328908a9087906001600160a01b031661558f565b01918254613f70565b60405192835260208301525f516020615aed5f395f51905f5260403393a360015f516020615bad5f395f51905f525580f35b50346104ef5761337236613a02565b9061337b6147ed565b613383614825565b6133906031548210613ebb565b61339b821515613efe565b6012546001600160a01b0316801561345b576129079082855260346020526133f36129028660096040822061344f8961343c61271061343360018060a01b036008870154169761342b6133fa84600a549d8e89613f3f565b0487613e9a565b60135490966c02deaf189c140c16b7c528f679602a1b935090613425906001600160a01b03166157f7565b90613f3f565b04998a613f3f565b049b8c99614843565b60125485906001600160a01b031661558f565b016128fa848254613f70565b6323d7072f60e21b8452600484fd5b50346104ef57806003193601126104ef576020601554604051908152f35b5034613571576134973661392a565b996134af9c9b9c9991999892989793979694966147ed565b6134b7614825565b60ff601f541680613584575b61357557600b546001600160a01b03166134de811515613df2565b6134ed600f5460085411613e35565b600e5490803b156135715760405163079cc67960e41b8152915f91839182908490829061351e903360048401613e7f565b03925af1801561356657613550575b506107839b9c61077e60018060a01b0360075416612cdb600854600f5490613e9a565b6107839c505f61355f91613aba565b5f9b61352d565b6040513d5f823e3d90fd5b5f80fd5b6329c1fbb960e01b5f5260045ffd5b50335f526020805260ff60405f205416156134c3565b34613571576040366003190112613571576135b36138d1565b6024356135bf816147b9565b33151580613671575b80613644575b6136315781906001600160a01b0384811691167f8c5be1e5ebec7d5bd14f71427d1e84f3dd0314c0f7b2291e5b200ac8c7c3b9255f80a45f90815260046020526040902080546001600160a01b0319166001600160a01b03909216919091179055005b63a9fbf51f60e01b5f523360045260245ffd5b506001600160a01b0381165f90815260056020908152604080832033845290915290205460ff16156135ce565b506001600160a01b0381163314156135c8565b34613571576020366003190112613571576004356136a1816147b9565b505f526004602052602060018060a01b0360405f205416604051908152f35b34613571575f366003190112613571576040515f5f546136df81613a52565b80845290600181169081156137635750600114613707575b610b4183610b2d81850382613aba565b5f8080527f290decd9548b62a8d60345a988386fc84ba6bc95484008f6362f93160ef3e563939250905b80821061374957509091508101602001610b2d6136f7565b919260018160209254838588010152019101909291613731565b60ff191660208086019190915291151560051b84019091019150610b2d90506136f7565b34613571575f366003190112613571576020600854604051908152f35b346135715760203660031901126135715760043563ffffffff60e01b8116809103613571576020906380ac58cd60e01b8114908115613801575b81156137f0575b506040519015158152f35b6301ffc9a760e01b149050826137e5565b635b5e139f60e01b811491506137de565b34613571576020366003190112613571575f516020615acd5f395f51905f52602060043561383e614792565b613849811515613db2565b80600855604051908152a1005b34613571576020366003190112613571577f8f9a18ca2bb8345d4ccc818be9b5053cc10bf2769baefd8591b900e8bb41ed0b6020600435613895614792565b6138a0811515613d73565b80600d55604051908152a1005b805180835260209291819084018484015e5f828201840152601f01601f1916010190565b600435906001600160a01b038216820361357157565b602435906001600160a01b038216820361357157565b9181601f84011215613571578235916001600160401b038311613571576020838186019501011161357157565b60c0600319820112613571576004356001600160401b0381116135715781613954916004016138fd565b909290916024356001600160401b0381116135715781613976916004016138fd565b909290916044356001600160401b0381116135715781613998916004016138fd565b909290916064356001600160401b03811161357157816139ba916004016138fd565b909290916084356001600160401b03811161357157816139dc916004016138fd565b9092909160a435906001600160401b038211613571576139fe916004016138fd565b9091565b6040906003190112613571576004359060243590565b6060906003190112613571576004356001600160a01b038116810361357157906024356001600160a01b0381168103613571579060443590565b90600182811c92168015613a80575b6020831014613a6c57565b634e487b7160e01b5f52602260045260245ffd5b91607f1691613a61565b61014081019081106001600160401b03821117613aa657604052565b634e487b7160e01b5f52604160045260245ffd5b601f909101601f19168101906001600160401b03821190821017613aa657604052565b9060405191825f825492613af084613a52565b8084529360018116908115613b5b5750600114613b17575b50613b1592500383613aba565b565b90505f9291925260205f20905f915b818310613b3f575050906020613b15928201015f613b08565b6020919350806001915483858901015201910190918492613b26565b905060209250613b1594915060ff191682840152151560051b8201015f613b08565b90602080835192838152019201905f5b818110613b9a5750505090565b8251845260209384019390920191600101613b8d565b9061012080613c33613c21613c0f613bfd613beb613bd989516101408a526101408a01906138ad565b60208a015189820360208b01526138ad565b604089015188820360408a01526138ad565b606088015187820360608901526138ad565b608087015186820360808801526138ad565b60a086015185820360a08701526138ad565b60c0808601519085015260e08086015190850152610100808601516001600160a01b03169085015293015191015290565b9080602083519182815201916020808360051b8301019401925f915b838310613c8f57505050505090565b9091929394602080613cad600193601f198682030187528951613bb0565b97019301930191939290613c80565b9091613cd3613ce193604084526040840190613b7d565b916020818403910152613c64565b90565b60243590811515820361357157565b906005821015613d0e57601e8260041c602b019260011b1690565b634e487b7160e01b5f52603260045260245ffd5b6001600160401b038111613aa657601f01601f191660200190565b929192613d4982613d22565b91613d576040519384613aba565b829481845281830111613571578281602093845f960137010152565b15613d7a57565b60405162461bcd60e51b815260206004820152601060248201526f0436f7374206d757374206265203e20360841b6044820152606490fd5b15613db957565b60405162461bcd60e51b815260206004820152601160248201527005072696365206d757374206265203e203607c1b6044820152606490fd5b15613df957565b60405162461bcd60e51b815260206004820152601460248201527314995dd85c99081d1bdad95b881b9bdd081cd95d60621b6044820152606490fd5b15613e3c57565b60405162461bcd60e51b815260206004820152601b60248201527a446973636f756e74206578636565647320736c6f7420707269636560281b6044820152606490fd5b6001600160a01b039091168152602081019190915260400190565b91908203918211613ea757565b634e487b7160e01b5f52601160045260245ffd5b15613ec257565b60405162461bcd60e51b8152602060048201526014602482015273151bdad95b88191bd95cc81b9bdd08195e1a5cdd60621b6044820152606490fd5b15613f0557565b60405162461bcd60e51b81526020600482015260126024820152710416d6f756e74206d757374206265203e20360741b6044820152606490fd5b81810292918115918404141715613ea757565b8115613f5c570490565b634e487b7160e01b5f52601260045260245ffd5b91908201809211613ea757565b818110613f88575050565b5f8155600101613f7d565b6001600160a01b03909116919082156140f3575f828152600260205260409020546001600160a01b03169282903315158061405e575b508461403d575b805f52600360205260405f2060018154019055815f52600260205260405f208160018060a01b0319825416179055845f516020615b8d5f395f51905f525f80a46001600160a01b031680830361402557505050565b6364283d7b60e01b5f5260045260245260445260645ffd5b6140468261598f565b845f52600360205260405f205f198154019055613fd0565b909150806140a2575b156140745782905f613fc9565b828461408c57637e27328960e01b5f5260045260245ffd5b63177e802f60e01b5f523360045260245260445ffd5b5033841480156140d1575b8061406757505f838152600460205260409020546001600160a01b03163314614067565b505f84815260056020908152604080832033845290915290205460ff166140ad565b633250574960e11b5f525f60045260245ffd5b60809181526040602082015260046040820152631b5a5b9d60e21b60608201520190565b5f198114613ea75760010190565b6001600160401b038111613aa65760051b60200190565b9061415982614138565b6141666040519182613aba565b8281528092614177601f1991614138565b0190602036910137565b6040519061418e82613a8a565b5f6101208360608152606060208201526060604082015260608082015260606080820152606060a08201528260c08201528260e0820152826101008201520152565b906141da82614138565b6141e76040519182613aba565b82815280926141f8601f1991614138565b01905f5b82811061420857505050565b602090614213614181565b828285010152016141fc565b8051821015613d0e5760209160051b010190565b9060405161424081613a8a565b6101206009829461425081613add565b845261425e60018201613add565b602085015261426f60028201613add565b604085015261428060038201613add565b606085015261429160048201613add565b60808501526142a260058201613add565b60a0850152600681015460c0850152600781015460e085015260088101546001600160a01b03166101008501520154910152565b156142dd57565b60405162461bcd60e51b815260206004820152601060248201526f092dce6eaccccd2c6d2cadce8408aa8960831b6044820152606490fd5b3d1561433f573d9061432682613d22565b916143346040519384613aba565b82523d5f602084013e565b606090565b90603154926143528461414f565b5f945f5b818110614471575050849285851015614417576143738587613e9a565b908082101561440f5750905b6143888261414f565b95614392836141d0565b955f5b8481106143a3575050505050565b5f19830190838211613ea7576143df6143c28261290286600196613e9a565b8b6143d8846143d1848b61421f565b519261421f565b528661421f565b515f5260346020526143f360405f20614233565b6143fd828b61421f565b52614408818a61421f565b5001614395565b90509061437f565b50509291505060209160405161442d8482613aba565b5f81525f368137604051936144428186613aba565b5f8552601f1981015f5b81811061445b57505050929190565b8290614465614181565b82828a0101520161444c565b806001915f526034602052600760405f2001544211614491575b01614356565b806144a561449e8a61412a565b998661421f565b5261448b565b908060209392818452848401375f828201840152601f01601f1916010190565b6144d86031548210613ebb565b5f52603460205260405f206006810154421061453d576007015442111561451b57604051614507604082613aba565b6004815263646f6e6560e01b602082015290565b604051614529604082613aba565b60048152636c69766560e01b602082015290565b5060405161454c604082613aba565b6005815264717565756560d81b602082015290565b929161456e818386613f93565b813b61457b575b50505050565b604051630a85bd0160e11b81523360048201526001600160a01b03948516602482015260448101919091526080606482015292169190602090829081906145c69060848301906138ad565b03815f865af15f9181614635575b5061460257506145e2614315565b805190816145fd5782633250574960e11b5f5260045260245ffd5b602001fd5b6001600160e01b03191663757a42ff60e11b0161462357505f808080614575565b633250574960e11b5f5260045260245ffd5b9091506020813d602011614672575b8161465160209383613aba565b8101031261357157516001600160e01b03198116810361357157905f6145d4565b3d9150614644565b5f929181549161468983613a52565b92600181169081156146d157506001146146a257505050565b90919293505f5260205f205f905b8382106146bd5750500190565b6001816020925484860152019101906146b0565b60ff191683525050811515909102019150565b6020909392919361ffff60408201951681520152565b614702614181565b50603354603154905b81811061474d575b50505f8080526034602052906147487f2dc2afdad33a5feea586a9545052327b65d28efb10d11fa69e77da986a1031cd614233565b905f90565b805f52603460205260405f206006810154421061478c576007810154421115614779575060010161470b565b9291506147869092614233565b90600190565b50614713565b6006546001600160a01b031633036147a657565b63118cdaa760e01b5f523360045260245ffd5b5f818152600260205260409020546001600160a01b03169081156147db575090565b637e27328960e01b5f5260045260245ffd5b60025f516020615bad5f395f51905f5254146148165760025f516020615bad5f395f51905f5255565b633ee5aeb560e01b5f5260045ffd5b60ff60065460a01c1661483457565b63d93c066560e01b5f5260045ffd5b6e22d473030f116ddee9f6b43ac78ba33b1561357157604051631b63c28b60e11b81523360048201523060248201526001600160a01b039283166044820152911660648201525f81608481836e22d473030f116ddee9f6b43ac78ba35af18015613566576148ae5750565b5f613b1591613aba565b92989b969991949793959a90608052881561543c576148d8368a87613d3d565b60208151910120936040946004602087516148f38982613aba565b82815201631d195e1d60e21b815220145f146153ee576080511515806153e1575b156153a2576149299c9b9c3660805186613d3d565b60a0525f9b5b60028d01808e11613ea75760a051518110156149f7578d601d60f91b9061495d60ff60f81b9160a0516158be565b51161490816149b2575b9d61498060029f92614985938161498c575b50156159ac565b61412a565b9c5061492f565b60a051602f60f81b92506001600160f81b0319916149a9916158be565b5116145f614979565b905060018e019d8e8111613ea75760a05160029f61498593614980929091602f60f81b916001600160f81b0319916149e9916158be565b5116149350919f5050614967565b50909192939495969798999a9c9b505f9b5b60038d01808e11613ea75760a05151811015614afb578d607760f81b90614a3760ff60f81b9160a0516158be565b5116149081614ac8575b81614a83575b9d61498060039f92614a5f9381614a665750156159ac565b9c50614a09565b60a051601760f91b92506001600160f81b0319916149a9916158be565b905060028e019d8e8111613ea75760a05160039f614a5f93614980929091607760f81b916001600160f81b031991614aba916158be565b5116149350919f5050614a47565b905060018e01808f11613ea75760a051607760f81b916001600160f81b031991614af291906158be565b51161490614a41565b5091939597999b5091939597999b5b6032544281111561539c57614b1f4282613e9a565b614b2c6009548092613f70565b5f19810191908211613ea757614b4191613f52565b601154111561538d57614ba88e614b7d8b51614b5d8d82613aba565b600a81526918dbdb9d195b9d155c9b60b21b60208201526080518c6159f4565b8a5190614b8a8c83613aba565b600b82526a636f6e74656e745479706560a81b60208301528c6159f4565b614bd78d8a5190614bb98c83613aba565b600b82526a617370656374526174696f60a81b60208301528d6159f4565b614bff8951614be68b82613aba565b60058152647469746c6560d81b602082015283856159f4565b614c2c8951614c0e8b82613aba565b600a815269617574686f724e616d6560b01b602082015285876159f4565b614c578951614c3b8b82613aba565b60088152671a5b5859d9555c9b60c21b602082015287896159f4565b8042115f14615387575042995b614c706009548c613f70565b9c8d6032556031549a614c828c61412a565b6031558b9f8c5f5260346020528b5f209a60018060401b0360805111613aa657614cac8c54613a52565b601f8111615353575b505f601f608051116001146152ea575f916080516152df575b505060805160011b905f1960805160031b1c1916178b555b60018b01916001600160401b038211613aa6578190614d058454613a52565b601f81116152af575b505f90601f8311600114615248575f9261523d575b50508160011b915f199060031b1c19161790555b60028901916001600160401b038211613aa6578190614d568454613a52565b601f811161520d575b505f90601f83116001146151a6575f9261519b575b50508160011b915f199060031b1c19161790555b60038701916001600160401b038211613aa6578190614da78454613a52565b601f811161516b575b505f90601f8311600114615104575f926150f9575b50508160011b915f199060031b1c19161790555b60048501916001600160401b038211613aa6578190614df88454613a52565b601f81116150c9575b505f90601f8311600114615062575f92615057575b50508160011b915f199060031b1c19161790555b60058301916001600160401b038211613aa657614e478354613a52565b601f8111615027575b505f90601f8311600114614fbf576008949392915f9183614fb4575b50508160011b915f199060031b1c19161790555b60068101859055600781018790550180546001600160a01b03191633908117909155156140f3575f8281526002602052819020546001600160a01b03168015159081614f94575b335f81815260036020908152858220805460010190558682526002905284812080546001600160a01b0319168317905585919083905f516020615b8d5f395f51905f529080a450614f81575b60335482811080614f6a575b15614f3557614f2d9061412a565b603355614f13565b507fc780354e4e9046e2d9244720d1141f228c2e87e4ee3a50d43e9086cc71f7960291929394815194855260208501523393a3565b50805f526034602052426007835f20015410614f1f565b6339e3563760e11b5f525f60045260245ffd5b614f9d8461598f565b805f526003602052825f205f198154019055614ec7565b013590505f80614e6c565b601f19831691845f5260205f20925f5b81811061500f575091600193918560089897969410614ff6575b505050811b019055614e80565b01355f19600384901b60f8161c191690555f8080614fe9565b91936020600181928787013581550195019201614fcf565b61505190845f5260205f20601f850160051c81019160208610611da557601f0160051c0190613f7d565b5f614e50565b013590505f80614e16565b909150601f19831691845f5260205f20925f5b8181106150b15750908460019594939210615098575b505050811b019055614e2a565b01355f19600384901b60f8161c191690555f808061508b565b91936020600181928787013581550195019201615075565b6150f390855f5260205f20601f850160051c81019160208610611da557601f0160051c0190613f7d565b5f614e01565b013590505f80614dc5565b909150601f19831691845f5260205f20925f5b818110615153575090846001959493921061513a575b505050811b019055614dd9565b01355f19600384901b60f8161c191690555f808061512d565b91936020600181928787013581550195019201615117565b61519590855f5260205f20601f850160051c81019160208610611da557601f0160051c0190613f7d565b5f614db0565b013590505f80614d74565b909150601f19831691845f5260205f20925f5b8181106151f557509084600195949392106151dc575b505050811b019055614d88565b01355f19600384901b60f8161c191690555f80806151cf565b919360206001819287870135815501950192016151b9565b61523790855f5260205f20601f850160051c81019160208610611da557601f0160051c0190613f7d565b5f614d5f565b013590505f80614d23565b909150601f19831691845f5260205f20925f5b818110615297575090846001959493921061527e575b505050811b019055614d37565b01355f19600384901b60f8161c191690555f8080615271565b9193602060018192878701358155019501920161525b565b6152d990855f5260205f20601f850160051c81019160208610611da557601f0160051c0190613f7d565b5f614d0e565b013590505f80614cce565b90601f1960805116918d5f5260205f20925f5b81811061533b575060805111615320575b5050506001608051811b018b55614ce6565b5f1960f860805160031b161c199101351690555f808061530e565b919360206001819287870135815501950192016152fd565b615381908d5f5260205f20601f6080510160051c810191602060805110611da557601f0160051c0190613f7d565b5f614cb5565b99614c64565b638acb5f2760e01b5f5260045ffd5b5f614b41565b845162461bcd60e51b815260206004820152601860248201527754657874206d75737420626520312d32303020636861727360401b6044820152606490fd5b5060c86080511115614914565b9295989b9194979a90939699608051614b0a57875162461bcd60e51b815260206004820152601460248201527310dbdb9d195b9d08155493081c995c5d5a5c995960621b6044820152606490fd5b60405162461bcd60e51b815260206004820152601560248201527410dbdb9d195b9d081d1e5c19481c995c5d5a5c9959605a1b6044820152606490fd5b600b545f906001600160a01b031680151580615584575b615537575b50601554806154f5575b506010546001600160a01b0316806154b6575b5050565b803b156111d157818091602460405180948193631e2b5cad60e31b83523360048401525af16154e3575050565b6154ee828092613aba565b6104ef5750565b338252601960205261550c60408320918254613f70565b90556015545f516020615b0d5f395f51905f526040518061552e339482614106565b0390a25f61549f565b600c5490803b1561357157604051634d24848760e11b8152915f918391829084908290615568903360048401613e7f565b03925af1156154955761557d91505f90613aba565b5f5f615495565b50600c541515615490565b916040519163a9059cbb60e01b5f5260018060a01b031660045260245260205f60448180865af19060015f51148216156155ef575b604052156155cf5750565b635274afe760e01b5f9081526001600160a01b0391909116600452602490fd5b90600181151661560757823b15153d151616906155c4565b503d5f823e3d90fd5b906001600160a01b03808316911681146154b257805f52601b60205260405f2054620151808101809111613ea75742106154b257805f52601b6020524260405f2055601654806156be575b5050600b546001600160a01b031690811515806156b3575b61567b575050565b601754823b15613571576156a8925f9283604051809681958294634d24848760e11b845260048401613e7f565b03925af16148ae5750565b506017541515615673565b815f5260196020526156d560405f20918254613f70565b90555f516020615b0d5f395f51905f526080601654604051908152604060208201526006604082015265646f6e61746560d01b6060820152a25f8061565b565b9061571f906157f7565b6c02deaf189c140c16b7c528f679602a1b8281029280159084049091141715613ea757613ce191613f52565b6157559034613e9a565b8061575d5750565b5f80808093335af161576d614315565b501561577557565b60405162461bcd60e51b8152602060048201526011602482015270115512081c99599d5b990819985a5b1959607a1b6044820152606490fd5b6040516157da6020828180820195805191829101875e81015f838201520301601f198101835282613aba565b51902060081c90565b51906001600160501b038216820361357157565b6001600160a01b031680156158af5760a060049160405192838092633fabe5a360e21b82525afa8015613566575f915f9161585b575b505f82131561584c576158446202a3009142613e9a565b1161584c5790565b63e5ea8c6560e01b5f5260045ffd5b91505060a0813d60a0116158a7575b8161587760a09383613aba565b8101031261357157615888816157e3565b50602081015161589f6080606084015193016157e3565b50905f61582d565b3d915061586a565b633e1e538160e21b5f5260045ffd5b908151811015613d0e570160200190565b801561596f5780815f925b61595957506158e882613d22565b916158f66040519384613aba565b80835281601f1961590683613d22565b013660208601375b61591757505090565b600a82066030019182603011613ea7578115613ea7575f1990910191600a919060f81b6001600160f81b0319165f1a61595084866158be565b5304908161590e565b9091615966600a9161412a565b929104806158da565b5060405161597e604082613aba565b60018152600360fc1b602082015290565b5f90815260046020526040902080546001600160a01b0319169055565b156159b357565b60405162461bcd60e51b8152602060048201526019602482015278131a5b9adcc81b9bdd08185b1b1bddd959081a5b881d195e1d603a1b6044820152606490fd5b6159ff913691613d3d565b5f5b8151811015615ac757601160f91b6001600160f81b0319615a2283856158be565b5116141580615aa5575b60405190615a6f6013602084885180838b018484015e8101721d1034b73b30b634b21031b430b930b1ba32b960691b838201520301600c19810185520183613aba565b15615a7d5750600101615a01565b60405162461bcd60e51b815260206004820152908190615aa19060248301906138ad565b0390fd5b50601760fa1b6001600160f81b0319615abe83856158be565b51161415615a2c565b50505056fedb2eaf3747bed30987dd0e7d0e6c8e93c1ee9d484064dd83f722c955d93553db3dbea1b4ce5f95137fdcac9b1d685825c3d70ace830df1ca5a181d3887add410b51b16cb4103a8ce441e52afe5cfabab49df83ba6b570adcde7724f975bdf7d0723c6888187867a49e2461d454127d83457e598b57490ff96a1f8cd5eca666c7d1c19fbcd4551a5edfb66d43d2e337c04837afda3482b42bdf569a8fccdae5fb8be0079c531659141344cd1fd0a4f28419497f9722a3daafe3b4186f6b6457e0ddf252ad1be2c89b69c2b068fc378daa952ba7f163c4a11628f55a4df523b3ef9b779b17422d0df92223018b32b4d1fa46e071723d6817e2486d003becc55f00a264697066735822122033fa574b5a567bfdcd9d8e728ba19f261677d0e5ca554482cf82a6a27c4d758464736f6c634300081c0033",
  "linkReferences": {},
  "deployedLinkReferences": {}
}